:100000000C94E2020C940A030C940A030C940A0365
:100010000C940A030C940A030C940A030C940A032C
:100020000C940A030C940A030C940A030C940A031C
:100030000C940A030C940A030C940A030C940A030C
:100040000C94280C0C940A030C94270B0C94010BB1
:100050000C940A030C940A030C940A030C940A03EC
:100060000C940A030C940A0300000000003E5B4F4E
:100070005B3E3E6B4F6B3E1C3E7C3E1C183C7E3C08
:10008000181C577D571C1C5E7F5E1C00183C180016
:10009000FFE7C3E7FF0018241800FFE7DBE7FF30A6
:1000A000483A060E2629792926407F050507407F14
:1000B00005253F5A3CE73C5A7F3E1C1C08081C1C87
:1000C0003E7F14227F22145F5F005F5F06097F017D
:1000D0007F006689956A606060606094A2FFA29468
:1000E00008047E040810207E201008082A1C080836
:1000F0001C2A08081E101010100C1E0C1E0C303884
:100100003E3830060E3E0E06000000000000005F84
:1001100000000007000700147F147F14242A7F2AA0
:100120001223130864623649562050000807030062
:10013000001C2241000041221C002A1C7F1C2A08AE
:10014000083E080800807030000808080808000011
:1001500060600020100804023E5149453E00427F85
:10016000400072494949462141494D331814127FD4
:100170001027454545393C4A494931412111090774
:100180003649494936464949291E000014000000F5
:1001900040340000000814224114141414140041C7
:1001A00022140802015909063E415D594E7C121184
:1001B000127C7F494949363E414141227F414141BC
:1001C0003E7F494949417F090909013E4141517337
:1001D0007F0808087F00417F41002040413F017FA8
:1001E000081422417F404040407F021C027F7F0470
:1001F00008107F3E4141413E7F090909063E4151B9
:10020000215E7F09192946264949493203017F01A8
:10021000033F4040403F1F2040201F3F4038403FA9
:10022000631408146303047804036159494D4300BF
:100230007F4141410204081020004141417F0402F6
:10024000010204404040404000030708002054548D
:1002500078407F284444383844444428384444286B
:100260007F385454541800087E090218A4A49C78BE
:100270007F0804047800447D40002040403D007F1A
:100280001028440000417F40007C047804787C08FA
:100290000404783844444438FC18242418182424CE
:1002A00018FC7C08040408485454542404043F44B3
:1002B000243C4040207C1C2040201C3C4030403CE2
:1002C00044281028444C9090907C4464544C440042
:1002D00008364100000077000000413608000201A6
:1002E0000204023C2623263C1EA1A161123A404092
:1002F000207A38545455592155557941225454780F
:1003000042215554784020545579400C1E527212A7
:100310003955555559395454545939555454580030
:1003200000457C410002457D420001457C407D1234
:1003300011127DF0282528F07C5455450020545496
:100340007C547C0A097F4932494949323A44444441
:100350003A324A4848303A4141217A3A424020787C
:10036000009DA0A07D3D4242423D3D4040403D3C7D
:1003700024FF2424487E4943662B2FFC2F2BFF09A2
:1003800029F620C0887E0903205454794100004496
:100390007D413048484A32384040227A007A0A0A81
:1003A000727D0D19317D2629292F282629292926F4
:1003B00030484D4020380808080808080808382F39
:1003C00010C8ACBA2F102834FA00007B00000814C3
:1003D0002A142222142A14085500550055AA55AA99
:1003E00055AAFF55FF55FF000000FF00101010FF39
:1003F00000141414FF001010FF00FF1010F010F094
:10040000141414FC001414F700FF0000FF00FF1484
:1004100014F404FC141417101F10101F101F1414D0
:10042000141F00101010F0000000001F101010101A
:100430001F10101010F010000000FF10101010100E
:1004400010101010FF10000000FF140000FF00FF4C
:1004500000001F10170000FC04F4141417101714E8
:1004600014F404F40000FF00F7141414141414140A
:10047000F700F7141414171410101F101F1414147D
:10048000F4141010F010F000001F101F0000001FE7
:1004900014000000FC140000F010F01010FF10FF1A
:1004A000141414FF141010101F00000000F010FFAF
:1004B000FFFFFFFFF0F0F0F0F0FFFFFF0000000093
:1004C00000FFFF0F0F0F0F0F3844443844FC4A4A17
:1004D0004A347E02020606027E027E0263554941CC
:1004E000633844443C04407E201E2006027E020203
:1004F00099A5E7A5991C2A492A1C4C7201724C3017
:100500004A4D4D303048784830BC625A463D3E49ED
:100510004949007E0101017E2A2A2A2A2A44445F91
:10052000444440514A444040444A51400000FF0185
:1005300003E080FF000008086B6B08361236243693
:10054000060F090F060000181800000010100030F8
:1005500040FF0101001F01011E00191D1712003C80
:100560003C3C3C000000000000000000230026008E
:100570002900000000080002010000030407000039
:1005800000000000000000000000240027002A00F6
:10059000010204081020408001020408102001021A
:1005A0000408102000000000250028002B0004048F
:1005B000040404040404020202020202030303030B
:1005C0000303C01511241FBECFEFD8E0DEBFCDBF9F
:1005D00013E0A0E0B1E0E2E4FEE202C005900D927B
:1005E000A23BB107D9F727E0A2EBB3E001C01D920F
:1005F000A23CB207E1F712E0C2EED2E004C02197BC
:10060000FE010E941917C13ED107C9F70E94430F8E
:100610000C941F170C940000CF92DF92EF92FF9280
:100620000F931F93CF93DF936C017A018B01C0E08E
:10063000D0E0CE15DF0589F0D8016D918D01D6018E
:10064000ED91FC910190F081E02DC6010995892B77
:1006500011F47E0102C02196ECCFC701DF91CF914A
:100660001F910F91FF90EF90DF90CF900895FC01C4
:10067000538D448D252F30E0842F90E0821B930B07
:10068000541710F0CF96089501970895FC01918DAD
:10069000828D981761F0828DDF01A80FB11D5D96E4
:1006A0008C91928D9F5F9F73928F90E008958FEF52
:1006B0009FEF0895FC01918D828D981731F0828D06
:1006C000E80FF11D858D90E008958FEF9FEF08955D
:1006D000FC01918D228D892F90E0805C9F4F821BC1
:1006E00091098F739927089580E097E00E9468032D
:1006F00021E0892B09F420E0822F0895FC01848DEC
:10070000DF01A80FB11DA35ABF4F2C91848D90E03B
:1007100001968F739927848FA689B7892C93A08916
:10072000B1898C9180648C93938D848D981306C0CD
:100730000288F389E02D80818F7D80830895EF9278
:10074000FF920F931F93CF93DF93EC0181E0888F8B
:100750009B8D8C8D981305C0E889F989808185FD72
:1007600024C0F62E0B8D10E00F5F1F4F0F73112763
:10077000E02E8C8DE8120CC00FB607FCFACFE8898A
:10078000F989808185FFF5CFCE010E947E03F1CFEC
:100790008B8DFE01E80FF11DE35AFF4FF0820B8FA6
:1007A000EA89FB898081806207C0EE89FF896083C6
:1007B000E889F98980818064808381E090E0DF911D
:1007C000CF911F910F91FF90EF900895CF93DF93FA
:1007D000EC01888D8823C9F0EA89FB89808185FD39
:1007E00005C0A889B9898C9186FD0FC00FB607FC9A
:1007F000F5CF808185FFF2CFA889B9898C9185FFDB
:10080000EDCFCE010E947E03E7CFDF91CF91089517
:1008100080E090E0892B29F00E94740381110C94F0
:1008200000000895833081F028F4813099F08230FF
:10083000A1F008958730A9F08830B9F08430D1F460
:10084000809180008F7D03C0809180008F7780939E
:100850008000089584B58F7702C084B58F7D84BDF4
:1008600008958091B0008F7703C08091B0008F7D94
:100870008093B00008953FB7F8948091B3039091AE
:10088000B403A091B503B091B60326B5A89B05C0EB
:100890002F3F19F00196A11DB11D3FBFBA2FA92FFF
:1008A000982F8827820F911DA11DB11DBC01CD017C
:1008B00042E0660F771F881F991F4A95D1F7089568
:1008C000FC0177FD68C080859185681779070CF079
:1008D00062C057FD60C082859385481759070CF0A8
:1008E0005AC08589823059F08330B1F08130D1F41B
:1008F0008FE290E0861B970BBA01AC0113C083E531
:1009000090E0FC01E61BF70BBF018FE290E0FC01D9
:10091000E41BF50BAF0106C083E590E0841B950B4B
:10092000AB01BC0164357105B0F54033510598F554
:10093000CA01E3E095958795EA95E1F74770552759
:10094000232BA1F024E5289FF001299FF00D11240D
:100950006E0F7F1FFB01E85FFE4F81E090E001C05A
:10096000880F4A95EAF79081892B14C024E5289FC7
:10097000F001299FF00D11246E0F7F1FFB01E85F2E
:10098000FE4F81E090E001C0880F4A95EAF780951C
:1009900090818923808308950895FC016370658B9D
:1009A0008481958126813781613039F0633029F067
:1009B000918780873387228708953187208793879F
:1009C000828708952F923F924F925F926F927F920B
:1009D0008F929F92AF92BF92CF92DF92EF92FF924F
:1009E0000F931F93CF93DF93CDB7DEB76C970FB6FE
:1009F000F894DEBF0FBECDBF9C8F8B8F5B011A01B9
:100A00001F830E833701C982DC0158964D915C919A
:100A100059974115510509F0E5C018968D919C91A3
:100A20001997681779070CF0CAC11A968D919C9195
:100A30001B97281639060CF0C2C18C2C912CFB0197
:100A400036E0C39EE00DF11D1124FB87EA871E16D8
:100A50001F060CF0B4C1C40133E0880F991F3A950A
:100A6000E1F79D878C87820D931D181619060CF0EF
:100A7000A6C157968C91811103C0203B08F02F5FCF
:100A8000AB8DBC8DED91FC9111970284F385E02D27
:100A9000CD012A8F09952A8DB5E02B9F9001112455
:100AA000F5013596FF87EE87BB82AA822501A90151
:100AB0004A195B09598B488BC10108969B8B8A8B1D
:100AC000E889F989E40DF51DE859FF4F949198875D
:100AD00061013D822C82A885A0FF13C0AB8DBC8D27
:100AE000ED91FC91B981B13031F40484F585E02DAC
:100AF0002E813F8116C00684F785E02DEE80FF80B1
:100B00001AC0EE81FF816E167F06F1F0AB8DBC8DB1
:100B1000ED91FC91B981B13051F40484F585E02D5B
:100B20009301A601B2018B8D9C8D09950DC00684A1
:100B3000F785E02D7301840194014C815D816A8108
:100B40007B818B8D9C8D0995E885E695E887FFEF85
:100B5000CF1ADF0A2C813D81280D391D3D832C835E
:100B60004A895B89C416D50609F0B5CF5FEF451AEF
:100B7000550A8A819B81880D991D9B838A83AE8546
:100B8000BF854A165B0609F09BCFEE81FF816E168A
:100B90007F0609F4F2C0EB8DFC8DA081B181F98153
:100BA000F13079F4B5016B5F7F4F5096ED91FC9178
:100BB0005197830128E030E0A1018B8D9C8D099530
:100BC000DCC06A857B85681979091E96ED91FC91D8
:100BD0001F9773010C851D859401A1018B8D9C8D40
:100BE0000995CBC0FA01349694913297659174912E
:100BF000291BCB01B7E02B9F800D911D1124FA0119
:100C0000259134913B8B2A8BFC01459154915B8358
:100C10004A83FC013296C490319654915E87329695
:100C200014913196D4908981823058F0612E012E32
:100C3000000C7708AD2D0D2C000CBB0BB987A887D5
:100C400004C019861886612C712CAB8DBC8DED917A
:100C5000FC9111970284F385E02DCD010995B981AE
:100C60008B2E912C689CC001699C900D789C900DF6
:100C70001124FC01EA0DFB1DFD87EC871C82712C01
:100C8000612CE12F110FFF0B95012E0F3F1F3B87AA
:100C90002A87AC0CB11CA5014E0F5F1F5F8B4E8BDA
:100CA000C1018D0D911DD7FC9A95998F888F4E8526
:100CB000641608F062C0862D90E048855985480F7B
:100CC000591F489D9001499D300D589D300D1124AC
:100CD000D901A20DB31DB98BA88BAA84BB844C8407
:100CE0005D84DC80BA85DB1AE88DF98DE80FF91F89
:100CF000FD8BEC8B8D2D8A0D2E893F89A216B306B4
:100D0000B9F1877061F48A819B810196EA89FB8938
:100D1000AA81BB81EA0FFB1F74909B838A8377FEB5
:100D200020C0AB8DBC8DED91FC91B981B13061F4E7
:100D30000484F585E02D2E813F814C895D89B501C4
:100D40008B8D9C8D09950DC00684F785E02DEE8076
:100D5000FF808401940148895989B2018B8D9C8D53
:100D60000995770CEFEFAE1ABE0A480C591CC2CF9A
:100D70003C813C0D3C8363949ACFAB8DBC8DED914F
:100D8000FC9111970688F789E02DCD016C960FB67E
:100D9000F894DEBF0FBECDBFDF91CF911F910F91B1
:100DA000FF90EF90DF90CF90BF90AF909F908F908B
:100DB0007F906F905F904F903F902F9009946C962A
:100DC0000FB6F894DEBF0FBECDBFDF91CF911F915C
:100DD0000F91FF90EF90DF90CF90BF90AF909F90DA
:100DE0008F907F906F905F904F903F902F900895DD
:100DF000AF92BF92CF92EF92FF920F931F93CF9338
:100E0000DF93EC01262F888D998D009709F040C063
:100E10006A3059F41D861C862C898E859F8538E0A2
:100E2000239F800D911D112441C06D3009F4AAC08B
:100E30008E898823C1F03C898C859D8546E0349F4E
:100E4000800D911D112448855985481759075CF478
:100E50001D861C868E859F8548E0349F800D911DE0
:100E600011249F878E87EA88FB88088919894E8517
:100E70005F856C857D85CC88CE010E94E2042C893B
:100E80008C859D8536E0239F800D911D112442C0E5
:100E90006A3079F41D861C862C89FC013696E49113
:100EA0008E859F852E9F800D911D11249F878E8793
:100EB00069C06D3009F466C0FC0134963491631743
:100EC00008F460C03196E491E61708F45BC0FC01B9
:100ED0003296A590B490462F50E0431B510937E05D
:100EE000349FB001359F700D1124A60EB71EF50179
:100EF000329634913196E491332311F0E1110DC013
:100F0000F5013496E4912C898C859D85E29F800DB6
:100F1000911D11249D878C8735C0F501359644912C
:100F20005E89552311F16C89E32FF0E0E40FF11D88
:100F300047FDFA956E9FD0016F9FB00D11244C852F
:100F40005D854A0F5B1FE885F985E417F5076CF4AA
:100F50001D861C86FC013696E4918E859F856E9FCA
:100F6000800D911D11249F878E87EA88FB88088950
:100F700019894E855F856C857D85CC88CE010E9460
:100F8000E204BECF81E090E0DF91CF911F910F91FD
:100F9000FF90EF90CF90BF90AF9008956F927F92A7
:100FA0008F929F92AF92BF92CF92DF92EF92FF9279
:100FB0000F931F93CF93DF93EC014B015A0169010B
:100FC0003801E881F9810284F385E02D0995E881F3
:100FD000F9810288F389E02D87019601A501B4010A
:100FE000CE010995E881F981A501460D571D4150B3
:100FF00051090288F389E02D9601B401CE010995CB
:10100000E881F9810088F189E02D9301A501B401FF
:10101000CE010995E881F981C80CD91CB60161504F
:1010200071090088F189E02D9301A501CE01099590
:10103000E881F9810688F789E02DCE01DF91CF9113
:101040001F910F91FF90EF90DF90CF90BF90AF90E6
:101050009F908F907F906F900994CF92DF92EF9244
:10106000FF920F931F93CF93DF9300D000D000D057
:10107000CDB7DEB76C01DC01ED91FC91621773070F
:1010800089F4041715072CF4942F852FA801092F34
:10109000182F041B150B98012F5F3F4F048CF58D03
:1010A000E02D12C04017510709F5261737072CF419
:1010B000962F872FB901292F382F261B370B2F5F2B
:1010C0003F4F068CF78DE02D8701C60109952696C6
:1010D0000FB6F894DEBF0FBECDBFDF91CF911F9149
:1010E0000F91FF90EF90DF90CF9008950284F385E9
:1010F000E02D2D833E834B835C8369837A8309953E
:10110000D601ED91FC910488F589E02D2D813E8179
:101110004B815C8169817A81C6010995D601ED9187
:10112000FC910688F789E02DC60126960FB6F89443
:10113000DEBF0FBECDBFDF91CF911F910F91FF900A
:10114000EF90DF90CF900994EF92FF920F931F934F
:10115000DC01ED91FC9111971A960D911C911B9752
:1011600018962D913C91199700A0F1A1E02D7B01DB
:1011700040E050E060E070E009951F910F91FF9012
:10118000EF9008954F925F926F927F928F929F920D
:10119000AF92BF92CF92DF92EF92FF920F931F9385
:1011A000CF93DF9300D0CDB7DEB76C015A01390180
:1011B0004801DC01ED91FC910284F385E02D698307
:1011C0007A8309956981462E7A81572E640C751CA5
:1011D000D601ED91FC91461457046CF40088F18916
:1011E000E02D87019401A501B201C6010995BFEF69
:1011F0004B1A5B0AEDCF0688F789E02DC6010F90E8
:101200000F90DF91CF911F910F91FF90EF90DF90A2
:10121000CF90BF90AF909F908F907F906F905F9096
:101220004F900994AF92BF92CF92DF92EF92FF92CC
:101230000F931F93CF93DF9300D000D0CDB7DEB7CD
:101240005C016901DC01ED91FC910284F385E02DE4
:101250004B835C8369837A830995D501ED91FC9179
:1012600069817A819B012C0D3D1D21503109048833
:10127000F589E02D78014B815C818A01C5010995D2
:10128000D501ED91FC910688F789E02DC5010F90FD
:101290000F900F900F90DF91CF911F910F91FF90C2
:1012A000EF90DF90CF90BF90AF900994AF92BF9234
:1012B000CF92DF92EF92FF920F931F93CF93DF9322
:1012C00000D000D0CDB7DEB75C016901DC01ED9143
:1012D000FC910284F385E02D4B835C8369837A83E0
:1012E0000995D501ED91FC914B815C81C40ED51E11
:1012F000B1E0CB1AD1080488F589E02D7801860188
:1013000069817A819B01C5010995D501ED91FC9117
:101310000688F789E02DC5010F900F900F900F9070
:10132000DF91CF911F910F91FF90EF90DF90CF90C1
:10133000BF90AF9009940895EF92FF920F931F937F
:10134000DC01ED91FC9100A0F1A1E02D09951F9128
:101350000F91FF90EF9008950F931F93DC01ED9193
:10136000FC91068CF78DE02D09951F910F91089542
:101370000F931F93DC01ED91FC91048CF58DE02D12
:1013800009951F910F910895DC01ED91FC91008466
:10139000F185E02D099408952F923F924F925F922C
:1013A0006F927F928F929F92AF92BF92CF92DF9275
:1013B000EF92FF920F931F93CF93DF9300D01F9272
:1013C000CDB7DEB74C017B836A836A0159011701EF
:1013D0009801241B350B37FF03C031952195310946
:1013E000C5014A815B81841B950B97FF03C09195D2
:1013F0008195910951E059838217930714F019825E
:101400000BC09A2D8B2D5801092F182F9A818B8193
:10141000DB82CA82C92ED82E8A819B81A816B90682
:101420005CF49C2D8D2D6801092F182F9A818B81DA
:10143000BB82AA82A92EB82E2501AA81BB814A1A95
:101440005B0A38016C187D0877FE03C071946194C3
:101450007108720157FE03C0BFEFEB1AFB0AF59447
:10146000E794C016D1061CF00FEF1FEF1FC001E07C
:1014700010E01CC0D401ED91FC91B9810484F58584
:10148000E02D9101BB23C1F04A815B81B601C4010B
:101490000995E618F708F7FE04C0C00ED11EE40C4B
:1014A000F51CEA81FB813196FB83EA834A815B81EB
:1014B000A416B506FCF604C0A6016A817B81E7CFBD
:1014C0000F900F900F90DF91CF911F910F91FF9090
:1014D000EF90DF90CF90BF90AF909F908F907F90D4
:1014E0006F905F904F903F902F900895089580E007
:1014F00090E008956115710579F0FB0101900020DD
:10150000E9F73197AF01461B570BDC01ED91FC91D8
:101510000280F381E02D099480E090E008954F92DD
:101520005F926F927F92EF92FF920F931F93CF93F0
:10153000DF93CDB7DEB7A1970FB6F894DEBF0FBE2D
:10154000CDBF7C01FA01CB0119A2223008F42AE0B8
:101550008E010F5D1F4F422E512C612C712CBF014B
:10156000A30192010E94C016F901CA01015011099C
:101570006A3014F4605D01C0695CD8016C93232B60
:10158000242B252B61F7B801C7010E947A0AA19686
:101590000FB6F894DEBF0FBECDBFDF91CF911F9184
:1015A0000F91FF90EF907F906F905F904F90089514
:1015B000CF92DF92EF92FF920F931F93CF93DF931F
:1015C000EC016A017B01E881F9810190F081E02D55
:1015D0006DE209958C0144275527BA014C195D0924
:1015E0006E097F092AE0CE010E948F0A800F911FA9
:1015F000DF91CF911F910F91FF90EF90DF90CF90EF
:1016000008951F920F920FB60F9211242F933F93BC
:101610004F935F936F937F938F939F93AF93BF93FA
:10162000EF93FF9380E097E00E947E03FF91EF919C
:10163000BF91AF919F918F917F916F915F914F91EA
:101640003F912F910F900FBE0F901F9018951F92F2
:101650000F920FB60F9211242F938F939F93EF93B6
:10166000FF93E0911007F09111078081E091160738
:10167000F091170782FD12C09081809119078F5F4A
:101680008F7320911A07821751F0E0911907F0E04B
:10169000E050F94F958F8093190701C08081FF9129
:1016A000EF919F918F912F910F900FBE0F901F90F0
:1016B0001895CF93DF93282F30E0F901EE58FA4FB9
:1016C0008491F901E057FA4FD491F901E255FA4FAC
:1016D000C491CC2391F081110E941204EC2FF0E010
:1016E000EE0FFF1FE859FA4FA591B491EC91ED234D
:1016F00081E090E021F480E002C080E090E0DF91A2
:10170000CF9108951F93CF93DF93282F30E0F901F5
:10171000EE58FA4F8491F901E057FA4FD491F9014C
:10172000E255FA4FC491CC23C9F0162F81110E94C3
:101730001204EC2FF0E0EE0FFF1FEC55FA4FA591CD
:10174000B4918FB7F894111105C09C91ED2FE095DD
:10175000E92302C0EC91ED2BEC938FBFDF91CF9189
:101760001F910895CF93DF9390E0FC01E057FA4F6B
:101770002491FC01E255FA4F8491882361F190E0B5
:10178000880F991FFC01EA57FA4FC591D491FC01CB
:10179000EC55FA4FA591B491611109C09FB7F89427
:1017A0008881209582238883EC912E230BC06230A0
:1017B00061F49FB7F8943881822F809583238883C2
:1017C000EC912E2B2C939FBF06C08FB7F894E88125
:1017D0002E2B28838FBFDF91CF9108958F929F92F8
:1017E000AF92BF92CF92DF92EF92FF926B017C019A
:1017F0000E943B044B015C01C114D104E104F104DB
:10180000F1F00E943B04DC01CB0188199909AA0977
:10181000BB09883E9340A105B10570F321E0C21ACF
:10182000D108E108F10888EE880E83E0981EA11C1B
:10183000B11CC114D104E104F10419F7DDCFFF900C
:10184000EF90DF90CF90BF90AF909F908F900895D2
:101850001F920F920FB60F9211242F933F938F93E5
:101860009F93AF93BF938091B7039091B803A091DA
:10187000B903B091BA033091B20323E0230F2D379F
:1018800020F40196A11DB11D05C026E8230F029684
:10189000A11DB11D2093B2038093B7039093B803A9
:1018A000A093B903B093BA038091B3039091B403AA
:1018B000A091B503B091B6030196A11DB11D80930F
:1018C000B3039093B403A093B503B093B603BF9151
:1018D000AF919F918F913F912F910F900FBE0F90DD
:1018E0001F9018958F929F92AF92BF92CF92DF92E6
:1018F000EF92FF92CF93DF9300D000D0CDB7DEB749
:101900009C014A015B0184EF91E0B9010E94F1164C
:101910006B01770FEE08FF08A7019601220F331F16
:10192000441F551FC501B4010E948E16812C912CB5
:10193000540182169306A406B506F4F461E082E031
:1019400029833A834B835C830E94820BC701B601D3
:101950000E94EE0B60E082E00E94820BC701B6019C
:101960000E94EE0B8FEF881A980AA80AB80A5C81C9
:101970004B813A812981DDCF62E070E080E090E028
:101980000F900F900F900F90DF91CF91FF90EF90FD
:10199000DF90CF90BF90AF909F908F900C94EE0B04
:1019A0006091BB037091BC038091BD039091BE0315
:1019B0000E94490E1092C2031092C1038091C1038C
:1019C0009091C2032091BF033091C0038217930707
:1019D000C4F4880F991FFC01ED53FC4F60817181A5
:1019E000FC01ED5AFA4F808191810E94490E80914D
:1019F000C1039091C20301969093C2038093C103E7
:101A0000DDCF0C940A0ECF92DF92EF92FF920F93EC
:101A10001F93CF93DF93EC010AE010E0B8010E941E
:101A2000F1166C0188EEE82E83E0F82ECE01B701A6
:101A30000E94F1169E01281B390BC901B7010E94B3
:101A4000F116CB0160E070E00E94E40E24E630E085
:101A5000CE01B9010E94F116AE01481B590BCA0113
:101A6000B7010E94F116B9010E94F116CB0164E0A2
:101A700070E00E94E40ECE018C199D09B8010E940D
:101A8000F116CB01B8010E94F11668E070E00E94E7
:101A9000E40E6CE070E0C601DF91CF911F910F91D1
:101AA000FF90EF90DF90CF900C94E40E6F927F92B6
:101AB0008F929F92AF92BF92CF92DF92EF92FF925E
:101AC0000F931F93CF93DF935C014B0186E0849FBC
:101AD000F001859FF00D1124EC5FFC4FE480F58050
:101AE00082819381E89EE001E99ED00DF89ED00DA1
:101AF00011242197C12CD12C00E010E03F0181E09E
:101B0000E81AF108D7FD22C0F301208131810C2EA3
:101B100002C0359527950A94E2F721703327A40176
:101B2000400F511FB5016C0D7D1D8DE997E00E949E
:101B300060040E151F051CF40F5F1F4F05C08FEFCB
:101B4000C81AD80A00E010E02197DCCFDF91CF91CE
:101B50001F910F91FF90EF90DF90CF90BF90AF90CB
:101B60009F908F907F906F9008959091B7079F3FBF
:101B700021F49091B8079F3F59F128E030E040E808
:101B8000E091BE07F091BF0750819091C1079095F9
:101B900095239083E091BC07F091BD079091C00719
:101BA000542F582319F05081952B03C050819095E4
:101BB00095239083E091BE07F091BF0750819091EB
:101BC000C107952B9083469521503109C9F6089598
:101BD0008EBD00000DB407FEFDCF8EB50895CF93E6
:101BE000C82F60E08091B9070E94820B8091BB07EB
:101BF00018161CF460E00E94820B8C2F0E94B50D19
:101C00008091BB07181624F461E0CF910C94820BED
:101C1000CF910895EF92FF920F931F93CF9388E097
:101C2000E82E81E0F82EC0E08C2F80640E94EF0D3A
:101C300080E80E94EF0D61E08091B9070E94820B5D
:101C40008091BB0718161CF460E00E94820B00E034
:101C500010E0F701E00FF11F80810E94B50D0F5FCA
:101C60001F4F04351105A9F78091BB0718161CF406
:101C700061E00E94820BCF5F84E5E80EF11CC63064
:101C800099F680E4CF911F910F91FF90EF900C9403
:101C9000EF0D8F929F92AF92BF92CF92DF92EF9211
:101CA000FF920F931F93CF93DF93EC018B016B0196
:101CB0008FEFC81AD80A21E030E0A601BE018DE9F5
:101CC00097E00E94C409780181E0E81AF10821E058
:101CD00030E0A701BE018DE997E00E94C4094E01E2
:101CE0008FEF881A980A21E030E0A801B4018DE94D
:101CF00097E00E94C4095E0181E0A81AB10821E0C2
:101D000030E0A801B5018DE997E00E94C40921E007
:101D100030E0A801B4018DE997E00E94C40921E0F8
:101D200030E0A801B5018DE997E00E94C40921E0E7
:101D300030E0A801B4018DE997E00E94C40921E0D8
:101D400030E0A801B5018DE997E00E94C40921E0C7
:101D500030E0A601BE018DE997E00E94C40921E0B0
:101D600030E0A601BE018DE997E00E94C40921E0A0
:101D700030E0A701BE018DE997E00E94C40921E08F
:101D800030E0A701BE018DE997E0DF91CF911F916F
:101D90000F91FF90EF90DF90CF90BF90AF909F900A
:101DA0008F900C94C40988EF91E0E8E0F1E0DF0146
:101DB0009C011D9221503040E1F7EDE9F7E01586D6
:101DC0001486178616860895AF92BF92CF92DF923F
:101DD000EF92FF920F931F93CF93DF936B01E12C50
:101DE000F12CC0E0D0E00EE010E0880F991FFC015C
:101DF000EC5CFC4FA080B1809501002E02C03595AF
:101E000027950A94E2F721703327AE01B7016C0DD4
:101E10007D1D8DE997E00E946004C430D10514F463
:101E2000219605C08FEFE81AF80AC0E0D0E0015013
:101E3000110910F7DF91CF911F910F91FF90EF9053
:101E4000DF90CF90BF90AF900895CF93DF93AC0118
:101E5000990F660B770B77FF05C080E097E00E9433
:101E6000D80A05C02AE080E097E00E948F0AEC01C2
:101E70006FEA73E080E097E00E947A0A8C0F9D1F62
:101E8000DF91CF910895789484B5826084BD84B544
:101E9000816084BD85B5826085BD85B5816085BD65
:101EA00080916E00816080936E001092810080911D
:101EB00081008260809381008091810081608093A5
:101EC0008100809180008160809380008091B100CA
:101ED00084608093B1008091B00081608093B000F5
:101EE00080917A00846080937A0080917A00826089
:101EF00080937A0080917A00816080937A0080914B
:101F00007A00806880937A001092C100E0911007F7
:101F1000F091110782E08083E0910C07F0910D07AA
:101F20001082E0910E07F0910F078FEC80831092E2
:101F30001807E0911407F091150786E08083E0917F
:101F40001207F0911307808180618083E09112076E
:101F5000F0911307808188608083E0911207F091EF
:101F60001307808180688083E0911207F091130746
:101F700080818F7D80838091B7078F3F29F4909176
:101F8000B8079F3F09F4B5C561E00E94B20B61E05C
:101F90008091B8070E94B20B8091B807082E000C00
:101FA000990BFC01E255FA4FE491F0E0EE0FFF1FB0
:101FB000EC55FA4F259134913093BF072093BE071B
:101FC000FC01E057FA4FE491E093C1078091B70715
:101FD000082E000C990BFC01E255FA4FE491F0E059
:101FE000EE0FFF1FEC55FA4F259134913093BD074A
:101FF0002093BC07FC01E057FA4FE491E093C0073F
:1020000061E08091B9070E94B20B8091BA0718165F
:102010001CF461E00E94B20B8091BB0718161CF4FF
:1020200061E00E94B20B8091BA07181674F460E068
:102030000E94820B64EF71E080E090E00E94EE0B62
:1020400061E08091BA070E94820B81E20E94EF0D4D
:1020500084E10E94EF0D88EA0E94EF0D80E20E9469
:10206000EF0D8CE00E94EF0D0E940A0E8EE480932B
:102070007C0062E070E080E090E00E94EE0B8091D6
:102080007A00806480937A0080917A0086FDFCCF8C
:10209000809178002091790030E0322F2227A90129
:1020A000330F660B770B9A01AB01282B60E070E3CE
:1020B00081E190E00E948E1629363041410551059C
:1020C00014F4C8E201C0CEE181E20E94EF0D8C2F32
:1020D00080680E94EF0D80E20E94EF0D0E94D30EF7
:1020E00062E08DE997E00E94CD0460E08AE00E9402
:1020F000B20B60E08CE00E94B20B60E08DE00E94C9
:10210000B20B60E08BE00E94B20B60E087E00E94BF
:10211000B20B61E082E00E94B20B61E083E00E94BA
:10212000B20B61E08AE00E94820B61E08CE00E94C9
:10213000820B61E08DE00E94820B61E08BE00E94E7
:10214000820B61E087E00E94820B61E083E00E94E5
:10215000820B84E090E09093C0038093BF03809152
:10216000A5079091A60797FD019695958795909361
:10217000BE038093BD038091A7079091A80797FDA8
:102180000196959587959093BC038093BB0380E05F
:1021900090E00E94030D0E940A0E20E030E080E0F3
:1021A00090E040E050E0EBE1F0E0BC0163507109E9
:1021B0004530510589F0D901AD5ABA4F49968D93F2
:1021C0009C93D901AD53BC4FED93FC934F5F5F4F90
:1021D0002E5F3F4FCB01E9CF1092C2031092C10393
:1021E000C091C103D091C203C430D105BCF4CE016B
:1021F000880F991FFC01ED53FC4F60817181FC0138
:10220000ED5AFA4F40E050E0808191810E94560DD6
:102210002196D093C203C093C103E2CF0E940A0E5D
:1022200081E08093F306C1E0D0E0BFE12B2E312C9A
:10223000412C512C18E1812E99249394A12CB12C7E
:102240008AE00E94590B3C019093FF068093FE06A2
:102250008CE00E94590B7C019093FD068093FC0654
:102260008DE00E94590B8C019093FB068093FA0637
:102270008BE00E94590B6C019093F9068093F8064D
:1022800087E00E94590B9093F7068093F606209101
:10229000F4063091F506232B09F017C12091EA06C8
:1022A0003091EB062230310509F463C4672819F533
:1022B0004091F30641111FC081E08093F206109215
:1022C000F1061092F0068091530590915405029703
:1022D00090930301809302018091C3039091C40302
:1022E0009093010180930001D093F506C093F4060A
:1022F00082E090E07EC02115310509F43DC4EF284D
:1023000031F54091F206411122C081E08093F3063D
:102310001092F1061092F0068091530590915405A9
:10232000029690930301809302018091C3039091E0
:10233000C40302969093010180930001D093F506A7
:10234000C093F4061092EB061092EA06BEC021304C
:10235000310551F1012B29F54091F006411121C0C1
:1023600081E08093F1061092F2061092F3068091BC
:10237000C3039091C40304979093010180930001DB
:10238000809153059091540590930301809302012D
:10239000D093F506C093F406D093EB06C093EA06FB
:1023A00094C02330310551F1CD2841F52091F1063B
:1023B000211124C081E08093F0061092F206109261
:1023C000F3068091C3039091C40301969093010199
:1023D000809300018091530590915405039690934A
:1023E000030180930201D093F506C093F40683E0C5
:1023F00090E09093EB068093EA0667C0892B09F082
:1024000064C00E94D30ED093B007C093AF07D0939F
:10241000AE07C093AD0785E090E09093C203809330
:10242000C103FF24F3940EE110E08091C103909169
:10243000C203181619060CF046C089E190E090938B
:10244000AA078093A9074AE050E05093AC07409355
:10245000AB07F092B10766E873E08DE997E00E9460
:102460007A0A88E290E09093AA078093A9071093D4
:10247000AC070093AB074091C1035091C203052EF6
:10248000000C660B770B77FF05C08DE997E00E9483
:10249000D80A05C02AE08DE997E00E948F0A0E94C1
:1024A0000A0E68EE73E080E090E00E94EE0B0E945E
:1024B000D30E8091C1039091C20301979093C20300
:1024C0008093C103B2CF0E94D00C2FB7F8946091D3
:1024D000B7037091B8038091B9039091BA032FBFED
:1024E00020910401309105014091060150910701AE
:1024F0000E94C016672B682B692B09F0F7C28091E8
:10250000F4069091F506892B09F054C08091F306EA
:10251000882389F0809153059091540504969093F7
:102520000301809302018091C3039091C4039093AF
:102530000101809300018091F206882389F0809147
:1025400053059091540504979093030180930201E1
:102550008091C3039091C403909301018093000183
:102560008091F106882389F08091C3039091C40380
:1025700004979093010180930001809153059091FD
:10258000540590930301809302018091F006882303
:1025900089F08091C3039091C40304969093010144
:1025A000809300018091530590915405909303010D
:1025B0008093020180910201909103010E94250FF6
:1025C00080910001909101010E94250F6DE873E058
:1025D00080E097E00E947A0A1092F5061092F406C5
:1025E000D093C203C093C10311E0ECE06E2E712CB6
:1025F000FEE1CF2ED12CA8E0EA2EF12C4091C103B0
:102600005091C2032091BF033091C00380915305C4
:1026100090915405421753070CF0D1C0440F551F39
:10262000FA01ED5AFA4F208131812817390709F054
:10263000BCC0FA01ED53FC4F208131818091C3036E
:102640009091C4032817390709F0AFC081E090E0EA
:102650000E947816082F8093E90680E090E00E949F
:1026600078168093E806202F30E0322F2227A90128
:10267000480F511DCA015093E7064093E60640916A
:10268000E4066091E506242F362F8217930790F415
:102690003093E7062093E6066093E9064093E80648
:1026A00081E090E00E9480166091E80680E090E072
:1026B0000E9480160E94D30ED093B007C093AF073C
:1026C000D093AE07C093AD071093B1078FE090E0B1
:1026D0009093AA078093A9077092AC076092AB070A
:1026E00064E973E08DE997E00E947A0A4AE050E0DD
:1026F0005093AA074093A907D092AC07C092AB07AA
:102700006FE973E08DE997E00E947A0A4091E40650
:102710005091E506052E000C660B770B77FF05C080
:102720008DE997E00E94D80A05C02AE08DE997E07C
:102730000E948F0A8AE090E09093AA078093A907ED
:1027400048E250E05093AC074093AB0766EA73E071
:102750008DE997E00E947A0A4091E6065091E706DB
:1027600060E070E02AE08DE997E00E948F0A0E9405
:102770000A0E48E853E160E070E084E190E00E94D6
:10278000720C0E94D30EF092C003E092BF0310922D
:10279000E5061092E4068092040190920501A09251
:1027A0000601B09207010E94D00C8091C103909164
:1027B000C20301969093C2038093C1031FCF60911F
:1027C000BD037091BE0386179707F9F0AB014F5F09
:1027D0005F4F84179507C9F04F5F5F4F84179507C8
:1027E000A1F0435051098417950779F080910201B7
:1027F00090910301181619060CF4B2C08C5A9F4F21
:102800009093030180930201ABC0E091C303F09168
:10281000C4038091BB039091BC03AC0141505109AA
:10282000E817F90761F0DC011196EA17FB0739F0A8
:102830000296E817F90719F0E417F507B9F6809141
:10284000E4069091E50601969093E5068093E406F0
:102850002F5F3F4F3093C0032093BF03809104014B
:1028600090910501A0910601B09107018A3591056B
:10287000A105B10558F04497A109B109809304015D
:1028800090930501A0930601B0930701615071096F
:10289000E12CF12C03E010E023E030E08DE997E03B
:1028A0000E94C20800E010E020E030E044E050E088
:1028B0006FE070E08DE997E00E94C2088091E40625
:1028C0009091E5060E94030D0E940A0E42E350E03B
:1028D00060E070E083E290E00E94720C0E946A1651
:1028E0002EE430E040E050E00E948E16DC01CB0187
:1028F0000296A11DB11D9093BE038093BD030E945B
:102900006A16A20191010E948E16DC01CB01099684
:10291000A11DB11D9C019093BC038093BB0340910A
:10292000BD035091BE03E3E5F5E0A3ECB3E08FEF08
:102930009FEF68E0E337F60779F0619171916417D2
:10294000750741F06D917C9111976217730711F033
:1029500080E090E01296EDCF019609F4BFCF46CF0C
:1029600080910201909103018435910534F08455E2
:10297000910990930301809302018091000190914D
:102980000101181619062CF0C0969093010180934E
:1029900000018091000190910101803391052CF09C
:1029A000889790930101809300014091BF0350915B
:1029B000C0037091EE066091EF06F091EC06E09195
:1029C000ED06E0900201F0900301009100011091EA
:1029D000010120E030E080E090E048175907D4F092
:1029E000D901AD5ABA4F7C9111966C911197F901AA
:1029F000ED53FC4FC080D180EC921196FC92008385
:102A0000118301962E5F3F4F8601F02FE12FE72EB5
:102A1000F62EE3CF7093EE066093EF06F093EC068C
:102A2000E093ED06E0920201F092030100930001B1
:102A3000109301019093C2038093C1030091EA06B1
:102A40001091EB066091BB037091BC038091BD03B4
:102A50009091BE030E94490E6091C3037091C4031C
:102A6000A80180915305909154050E94560D8091C4
:102A7000BF039091C003880F991FFC01ED53FC4FD9
:102A800040815181FC01ED5AFA4F60817181E12C46
:102A9000F12C04E010E024E030E08DE997E00E94A2
:102AA000C2082091A5073091A607EE24E394F12CEB
:102AB00001E010E046E050E060E070E08DE997E072
:102AC0000E94CE070091A7071091A807085011098E
:102AD0002091A5073091A60748E050E060E070E043
:102AE0008DE997E00E94CE070E940A0E0E9408041A
:102AF000A7CBCFB7F8948091E306811127C0E8EB0C
:102B0000F5E08491EAE9F5E09491E82FF0E0EE0F2A
:102B1000FF1FEA57FA4FA591B491EC91E92321F4F4
:102B200061E08AE00E94820B61E08AE00E94B20BC1
:102B30008CB580618CBD8CB580648CBD61E08DE00E
:102B40000E94B20B61E08BE00E94B20B8091E30621
:102B50008F5F8093E306CFBF8CB58C7F8CBD8DB526
:102B60008E7F8DBD8CB5837F8CBD8CB58F7D8CBDEC
:102B700047CAEF2809F4C5CB012B09F4EDCB14CCDF
:102B8000E0E0F7E01382128288EE93E0A0E0B0E08C
:102B900084839583A683B7838CE493E091838083B9
:102BA00085EC90E09587848784EC90E09787868712
:102BB00080EC90E0918B808B81EC90E0938B828B0A
:102BC00082EC90E0958B848B86EC90E0978B868BE3
:102BD000118E128E138E148EEDE9F7E0138212829D
:102BE00024E530E03583248380E390E09783868377
:102BF0003187208793878287158A158614861786E2
:102C0000168681E0848B2FEF3FEF338B228B318B45
:102C1000208B868B178A118E108E8EE593E0918320
:102C2000808385E0828F84E0838F86E0848F89E0D3
:102C3000858F88E0868F08958F929F92AF92BF9282
:102C4000CF92DF92EF92FF92CF93DF93EC016881F6
:102C500079818A819B81611571058105910521F436
:102C600064E279ED8BE597E02DE133EF41E050E050
:102C70000E948E1649015A019B01AC01A7EAB1E4FA
:102C80000E94AD166B017C01ACEEB4EFA50194017E
:102C90000E94BB16DC01CB018C0D9D1DAE1DBF1D1E
:102CA000B7FF03C00197A109B04888839983AA831D
:102CB000BB83BC01CD019F77DF91CF91FF90EF9057
:102CC000DF90CF90BF90AF909F908F9008950E941B
:102CD0001C16089580E093E00E941C1608956093EE
:102CE00000037093010380930203909303030895FC
:102CF000F999FECF92BD81BDF89A992780B50895C4
:102D0000262FF999FECF1FBA92BD81BD20BD0FB607
:102D1000F894FA9AF99A0FBE01960895052E97FB3A
:102D20001EF400940E94A51657FD07D00E94C016FD
:102D300007FC03D04EF40C94A516509540953095A1
:102D400021953F4F4F4F5F4F089590958095709517
:102D500061957F4F8F4F9F4F08950E94E216A59F68
:102D6000900DB49F900DA49F800D911D1124089586
:102D7000B7FF0C94AD160E94AD16821B930B0895FD
:102D8000A1E21A2EAA1BBB1BFD010DC0AA1FBB1F6F
:102D9000EE1FFF1FA217B307E407F50720F0A21BE1
:102DA000B30BE40BF50B661F771F881F991F1A944E
:102DB00069F760957095809590959B01AC01BD0178
:102DC000CF010895A29FB001B39FC001A39F700DD2
:102DD000811D1124911DB29F700D811D1124911D23
:102DE000089597FB072E16F4009407D077FD09D0BD
:102DF0000E94051707FC05D03EF4909581959F4FE2
:102E00000895709561957F4F0895AA1BBB1B51E1F2
:102E100007C0AA1FBB1FA617B70710F0A61BB70B4A
:102E2000881F991F5A95A9F780959095BC01CD01EF
:102E30000895EE0FFF1F0590F491E02D0994F8948A
:022E4000FFCFC2
:102E42000A000A0018010000000000000000000053
:102E52000000000000000000000000000000000070
:102E62000000000000000000000000000000C0E0C0
:102E7200F0F8FCFCFEFFFCE0000000000000000097
:102E82000000000000000000000000000000000040
:102E92000000000000000000000000000000000030
:102EA20000000000000000000000000000F8F8F838
:102EB200F8F8F8F8F8F8F8F8F8F0F0E0E0C080C0B8
:102EC200FCFFFFFFFF7F3F7FFFFFFFFFFF000000D0
:102ED20000000000000000000000000000000000F0
:102EE20000000000000000000000000000000000E0
:102EF20000000000000000000000000000000000D0
:102F020000000F1F3F7FFFFFFFFFFFFFFFFFE7C72D
:102F1200C7878F9F9FFFFFFFC1C0E0FCFFFFFFFF3E
:102F2200FFFCFCFCFCFEFEFEFCFCF8F8F0E0C0C07E
:102F3200000000000000000000000000000000008F
:102F4200000000000000000000000000000000007F
:102F520000000000000000000080C0E0F1FBFFFF65
:102F6200FFFFFF7F1F0F0F87E7FFFFFF1F1F3FF9C5
:102F7200F8F8F8F8F8F8FDFFFFFFFFFFFFFFFFFF8B
:102F82007F3F0F070100000000000000000000006A
:102F9200000000000000000000000000000000002F
:102FA2000000000000000000000000F0FEFFFFFF34
:102FB200FFFFFFFFFFFFFFFE7E3F3F0F1FFFFFFFF1
:102FC200FCF0E0F1FFFFFFFFFFFCF0010101010156
:102FD20001010100000000000000000000000000EC
:102FE20000000000000000000000000000000000DF
:102FF20000000000000000000000000000000003CC
:1030020003030303030303010101010000000000A5
:103012000000030F1F3F7F7FFFFFFFFF7F7F1F0324
:10302200000000000000000000000000000000009E
:10303200000000000000000000000000000000008E
:10304200010000007E0004000200E700020004000C
:10305200BD00040002007E00020004005B170500B0
:103062000300FE0505000200696E05000400BE00B3
:10307200040002003F7E1F01BD5EBF569F70B776FF
:10308200B77EF842BF7EBF76000000009F030C03AC
:103092003703E603680346035A0300000000F806FC
:1030A2000C03770A760A6004CB09C4099C09B809A3
:1030B200AC09CC099B09CD04CC0456091209C208FB
:1030C200A4082D08CE07504155534544005F5F5F69
:1030D2005F5F5F004F79756E2042697474690053B7
:1030E2006B6F723A200059756B73656B3A20000D55
:0230F2000A00D2
:00000001FF
