:020000040000FA
:100000000C94E2020C940A030C940A030C940A0365
:100010000C940A030C940A030C940A030C940A032C
:100020000C940A030C940A030C940A030C940A031C
:100030000C940A030C940A030C940A030C940A030C
:100040000C94DF0E0C940A030C940A030C940A031C
:100050000C940A030C940A030C940A030C940A03EC
:100060000C94290F0C940A0300000000003E5B4F23
:100070005B3E3E6B4F6B3E1C3E7C3E1C183C7E3C08
:10008000181C577D571C1C5E7F5E1C00183C180016
:10009000FFE7C3E7FF0018241800FFE7DBE7FF30A6
:1000A000483A060E2629792926407F050507407F14
:1000B00005253F5A3CE73C5A7F3E1C1C08081C1C87
:1000C0003E7F14227F22145F5F005F5F06097F017D
:1000D0007F006689956A606060606094A2FFA29468
:1000E00008047E040810207E201008082A1C080836
:1000F0001C2A08081E101010100C1E0C1E0C303884
:100100003E3830060E3E0E06000000000000005F84
:1001100000000007000700147F147F14242A7F2AA0
:100120001223130864623649562050000807030062
:10013000001C2241000041221C002A1C7F1C2A08AE
:10014000083E080800807030000808080808000011
:1001500060600020100804023E5149453E00427F85
:10016000400072494949462141494D331814127FD4
:100170001027454545393C4A494931412111090774
:100180003649494936464949291E000014000000F5
:1001900040340000000814224114141414140041C7
:1001A00022140802015909063E415D594E7C121184
:1001B000127C7F494949363E414141227F414141BC
:1001C0003E7F494949417F090909013E4141517337
:1001D0007F0808087F00417F41002040413F017FA8
:1001E000081422417F404040407F021C027F7F0470
:1001F00008107F3E4141413E7F090909063E4151B9
:10020000215E7F09192946264949493203017F01A8
:10021000033F4040403F1F2040201F3F4038403FA9
:10022000631408146303047804036159494D4300BF
:100230007F4141410204081020004141417F0402F6
:10024000010204404040404000030708002054548D
:1002500078407F284444383844444428384444286B
:100260007F385454541800087E090218A4A49C78BE
:100270007F0804047800447D40002040403D007F1A
:100280001028440000417F40007C047804787C08FA
:100290000404783844444438FC18242418182424CE
:1002A00018FC7C08040408485454542404043F44B3
:1002B000243C4040207C1C2040201C3C4030403CE2
:1002C00044281028444C9090907C4464544C440042
:1002D00008364100000077000000413608000201A6
:1002E0000204023C2623263C1EA1A161123A404092
:1002F000207A38545455592155557941225454780F
:1003000042215554784020545579400C1E527212A7
:100310003955555559395454545939555454580030
:1003200000457C410002457D420001457C407D1234
:1003300011127DF0282528F07C5455450020545496
:100340007C547C0A097F4932494949323A44444441
:100350003A324A4848303A4141217A3A424020787C
:10036000009DA0A07D3D4242423D3D4040403D3C7D
:1003700024FF2424487E4943662B2FFC2F2BFF09A2
:1003800029F620C0887E0903205454794100004496
:100390007D413048484A32384040227A007A0A0A81
:1003A000727D0D19317D2629292F282629292926F4
:1003B00030484D4020380808080808080808382F39
:1003C00010C8ACBA2F102834FA00007B00000814C3
:1003D0002A142222142A14085500550055AA55AA99
:1003E00055AAFF55FF55FF000000FF00101010FF39
:1003F00000141414FF001010FF00FF1010F010F094
:10040000141414FC001414F700FF0000FF00FF1484
:1004100014F404FC141417101F10101F101F1414D0
:10042000141F00101010F0000000001F101010101A
:100430001F10101010F010000000FF10101010100E
:1004400010101010FF10000000FF140000FF00FF4C
:1004500000001F10170000FC04F4141417101714E8
:1004600014F404F40000FF00F7141414141414140A
:10047000F700F7141414171410101F101F1414147D
:10048000F4141010F010F000001F101F0000001FE7
:1004900014000000FC140000F010F01010FF10FF1A
:1004A000141414FF141010101F00000000F010FFAF
:1004B000FFFFFFFFF0F0F0F0F0FFFFFF0000000093
:1004C00000FFFF0F0F0F0F0F3844443844FC4A4A17
:1004D0004A347E02020606027E027E0263554941CC
:1004E000633844443C04407E201E2006027E020203
:1004F00099A5E7A5991C2A492A1C4C7201724C3017
:100500004A4D4D303048784830BC625A463D3E49ED
:100510004949007E0101017E2A2A2A2A2A44445F91
:10052000444440514A444040444A51400000FF0185
:1005300003E080FF000008086B6B08361236243693
:10054000060F090F060000181800000010100030F8
:1005500040FF0101001F01011E00191D1712003C80
:100560003C3C3C00000000000000000800020100CC
:10057000000304070000000000000000000000006D
:10058000240027002A000000000023002600290084
:10059000010204081020408001020408102001021A
:1005A0000408102000000000250028002B0004048F
:1005B000040404040404020202020202030303030B
:1005C0000303441011241FBECFEFD8E0DEBFCDBF20
:1005D00013E0A0E0B1E0E4E8F0E302C005900D9282
:1005E000A635B107D9F727E0A6E5B3E001C01D9213
:1005F000AA33B207E1F712E0C2EED2E004C02197BD
:10060000FE010E941017C13ED107C9F70E94E410F5
:100610000C9440180C940000FC0120812EBD0DB4F8
:1006200007FEFDCF2EB5FC01208308950895AF92FB
:10063000BF92CF92DF92EF92FF920F931F93CF93CF
:10064000DF936C017B018B01040F151FEB015E0131
:10065000AE18BF08C017D10759F06991D601ED91C6
:10066000FC910190F081E02DC6010995892B79F765
:10067000C501DF91CF911F910F91FF90EF90DF9017
:10068000CF90BF90AF900895833081F028F48130EF
:1006900099F08230A9F008958730A9F08830C9F028
:1006A0008430B1F4809180008F7D03C08091800000
:1006B0008F7780938000089584B58F7784BD0895E7
:1006C00084B58F7DFBCF8091B0008F778093B00091
:1006D00008958091B0008F7DF9CFCF93DF93282FBD
:1006E00030E0F901E859FA4F8491F901E057FA4FE7
:1006F000D491F901E255FA4FC491CC23A1F08111B4
:100700000E944403EC2FF0E0EE0FFF1FEA57FA4F70
:10071000A591B491EC91ED2381E090E009F480E0A3
:10072000DF91CF91089580E090E0FACF1F93CF93AF
:10073000DF93282F30E0F901E859FA4F8491F9014D
:10074000E057FA4FD491F901E255FA4FC491CC2306
:10075000A9F0162F81110E944403EC2FF0E0EE0F58
:10076000FF1FEC55FA4FA591B4918FB7F894EC9117
:10077000111108C0D095DE23DC938FBFDF91CF919C
:100780001F910895DE2BF8CFCF93DF9390E0FC010B
:10079000E057FA4F249182559A4FFC0184918823A7
:1007A000D1F090E0880F991FFC01E458FA4FA59111
:1007B000B491FC01EC55FA4FC591D49161110EC072
:1007C0009FB7F8948C91E22FE0958E238C9328812B
:1007D000E223E8839FBFDF91CF9108958FB7F8940C
:1007E000EC91E22BEC938FBFF6CF8230910538F07D
:1007F000880F991F880F991F05970197F1F70895A2
:100800009F92AF92BF92CF92DF92EF92FF920F939F
:100810001F93CF93DF93EC016B018885998511E0DD
:10082000892B09F010E8F601A0808A2D81239924F4
:1008300093948111912C2C813D814E815F8160E2E6
:1008400071EA87E090E00E94B716022FB12CE22EE9
:10085000F12C002319F0C7010E94F5038A85877FD8
:1008600009F04FC08D858F3F89F09A2D912381E04B
:1008700009F480E0891551F0EF85F8898F89992373
:10088000D1F19081892B808399249394E989FA8905
:100890008081998D892B8083002319F0C7010E94E4
:1008A000F5038E858F3F39F0EB89FC898081988D27
:1008B000892309F0B12AE989FA899081898D809587
:1008C000892380838E858F3F11F0F601B082888561
:1008D0009985892B09F044C0110F1111BACFDF910E
:1008E000CF911F910F91FF90EF90DF90CF90BF902D
:1008F000AF909F9008959081809589238083912C5B
:10090000C5CFE989FA898081998D892B808300235D
:1009100019F0C7010E94F5038D858F3F49F0EF85DF
:10092000F8898F899A2D9123B9F09081892B808342
:10093000E989FA899081898D8095892380838E85C4
:100940008F3F09F4BFCFEB89FC898081988D892383
:1009500009F4B8CFB12AB6CF908180958923E7CF2B
:100960001695BBCFAF92BF92CF92DF92EF92FF92DC
:100970000F931F93CF93DF931F92CDB7DEB78C01F8
:100980005B016A01DC018D919C911197892B39F0F3
:100990001296ED91FC91908181819CBD8DBD60E0AE
:1009A000F80183850E9496037501CA0CDB1CCE14E6
:1009B000DF04A9F0D7018D917D018983F801808141
:1009C0009181892B29F0CE0101960E940C03EFCF73
:1009D000BE016F5F7F4FC8010E940004E8CF61E055
:1009E000D8011B968C910E94960381E00F90DF91B5
:1009F000CF911F910F91FF90EF90DF90CF90BF901C
:100A0000AF9008953FB7F8948091C8039091C903BF
:100A1000A091CA03B091CB0326B5A89B05C02F3F78
:100A200019F00196A11DB11D3FBFBA2FA92F982F14
:100A30008827BC01CD01620F711D811D911D42E00F
:100A4000660F771F881F991F4A95D1F708958F92D7
:100A50009F92AF92BF92CF92DF92EF92FF926B0183
:100A60007C010E9402054B015C01C114D104E10428
:100A7000F104B9F00E940205681979098A099B09F5
:100A8000683E73408105910580F321E0C21AD108C8
:100A9000E108F10888EE880E83E0981EA11CB11CC5
:100AA000E4CFFF90EF90DF90CF90BF90AF909F90FA
:100AB0008F90089520917D03260F3327331F213215
:100AC0003105ECF42091A103FC0190E080E024309A
:100AD00069F082E00895A0917D032191AC01435A11
:100AE0005C4FA40FB52FB11D2C930196861798F378
:100AF00080917D03680F60937D0380E0089581E01D
:100B000008958FEF9FEF08958FEF9FEF08958091E5
:100B1000560390E09195819591090895CF93DF93C5
:100B2000CB01EA01642F0E945A05CE01DF91CF91DB
:100B30000895CF93DF931F92CDB7DEB7698361E04D
:100B4000CE0101960E945A0581E090E00F90DF915E
:100B5000CF9108950F931F93CF93DF931F92CDB73B
:100B6000DEB78C01698360E0FC01868D0E949603EC
:100B700041E050E0BE016F5F7F4FF801838D948D9F
:100B80000E94B2040F90DF91CF911F910F910895B1
:100B9000CF93C82F87FDCFE7C0932E0761E28FE088
:100BA00097E00E94AA056C2F60688FE097E00E9492
:100BB000AA0560E28FE097E0CF910C94AA05CF934D
:100BC00080912C0787FD13C061E00E94C40360E0A0
:100BD00080912C070E94960361E070E080E090E035
:100BE0000E94270561E080912C070E949603C09126
:100BF0002F07C83008F0C7E0C0932F0761E28FE0ED
:100C000097E00E94AA056C2F60618FE097E00E9438
:100C1000AA0560E28FE097E00E94AA0580912E0766
:100C20000E94C80560E28FE097E00E94AA056CE090
:100C30008FE097E0CF910C94AA05FF920F931F933A
:100C4000CF93DF9390913007992339F0809131074A
:100C50008F5F8917E8F580933107D0913407D695D7
:100C6000D695D69584E5D89F8001112480913507CB
:100C70008695869586958D1780F16D2F60648FE03F
:100C800097E00E94AA05C0913207F09033076C2FBD
:100C900060688FE097E00E94AA0561E080912D07CF
:100CA0000E9496034F2D50E06C2F70E0461B570BAF
:100CB0004F5F5F4F600F711F685F7E4F80912A0703
:100CC00090912B070E94B204DF5F0C5A1F4FCECFCA
:100CD000109231070E94DF05C0CF60E48FE097E0FB
:100CE0000E94AA0583E580933207109233078FE2B2
:100CF0008093340710923507DF91CF911F910F91A8
:100D0000FF9008951F93CF93DF93EC01162F60E2BD
:100D10000E94AA056CE011116DE0CE01DF91CF9128
:100D20001F910C94AA05FC0177FD55C08085918523
:100D3000681779070CF04FC057FD4DC08285938529
:100D4000481759070CF047C08689823009F444C01F
:100D5000833009F44EC0813031F48FE290E0861B7D
:100D6000970BBA01AC01842FA62F93A1691708F441
:100D7000962F93A394A19A1708F49A2F94A395A160
:100D8000891708F4982F95A396A1981708F4982F1F
:100D900096A3CA0157FD0796E3E095958795EA95D6
:100DA000E1F7A4E5A89FF001A99FF00D1124E60F3B
:100DB000F71FE85FFE4FCA0168E070E00E94E81686
:100DC00041E050E001C0440F8A95EAF78081232B6F
:100DD000B9F0842B8083089583E590E0DC01A61BA5
:100DE000B70BBD018FE290E0DC01A41BB50BAD0198
:100DF000BACF83E590E0841B950BAB01BC01B3CF68
:100E000040958423E7CF0895FC016370668B84814D
:100E1000958126813781613039F0633029F09187DF
:100E20008087338722870895318720879387828739
:100E300008952F923F924F925F926F927F928F927E
:100E40009F92AF92BF92CF92DF92EF92FF920F9359
:100E50001F93CF93DF93CDB7DEB76A970FB6F894A1
:100E6000DEBF0FBECDBF9A8F898F7A8369834A0117
:100E7000D22E18870F833701BC2CDC0159962D9197
:100E80003C915A972115310509F015C118968D919D
:100E90009C911997681779070CF0D7C11A968D9114
:100EA0009C91481759070CF0D0C14C2C512CB6E03E
:100EB000CB9E600D711D11247C876B87161617065B
:100EC0000CF0C3C1EA2DF0E0FA87E98793E0EE0F5A
:100ED000FF1F9A95E1F7F88BEF87CF01840F951FDD
:100EE000181619060CF0B1C1A98DBA8D58968C91BF
:100EF000811104C0BFEABD1508F4D394A98DBA8D41
:100F0000ED91FC9111970284F385E02DCD010995B7
:100F1000B5E0DB9EC0011124E981FA81FC83EB83FB
:100F2000312C212C9C0128593F4F388F2F8B4A2D73
:100F300050E05E8B4D8BEF89F88DE20DF31D4491EF
:100F40009E828D82D12CC12C69817A81620D731DA4
:100F50007A8B698B842F90E09C8B8B8BE98DFA8D3B
:100F6000A081B18140FF82C0F1E0BF126FC0AF121B
:100F70006DC01C96ED91FC912F813885A4014C0D1C
:100F80005D1D69897A89898D9A8D0995EB89FC891E
:100F9000F595E7954E2F5FEFC51AD50A6D817E81D5
:100FA0008D899E89680F791F7E836D8398E0C916AD
:100FB000D10481F6AFEF2A1A3A0AEB81FC81E40DE5
:100FC000F51DFC83EB83F5E02F16310409F0B3CF58
:100FD0002F81388526153705B9F0A98DBA8DED9189
:100FE000FC91B1E0BB1257C0AB1255C069817A8148
:100FF0006B5F7F4F0088F189E02D830128E030E0AE
:10100000A401898D9A8D0995A98DBA8DED91FC91D8
:1010100011970688F789E02DCD016A960FB6F894EE
:10102000DEBF0FBECDBFDF91CF911F910F91FF901B
:10103000EF90DF90CF90BF90AF909F908F907F9078
:101040006F905F904F903F902F9009941E96ED9176
:10105000FC91EF80F88409851A8592014D815E81AB
:101060006B817C81898D9A8D099590CF2F813885F0
:101070002615370509F48ACF31E0B31207C0A31251
:1010800005C01C96ED91FC91930178CF1E96ED91D1
:10109000FC917301E0CF6B857C856419750906842A
:1010A000F785E02D73010F8518899201A401898DC0
:1010B0009A8D0995A9CFF90134969491329745916B
:1010C0005491D91AB7E0DB9E400D511D1124F9014E
:1010D000259134913C8B2B8BFA0125903490FA01A9
:1010E0003296749031963491398B32966490319661
:1010F000449041E04C1518F04A1508F07FC0662D69
:10110000062C000C770B7C836B83842D042C000C45
:10111000990B9E838D83A98DBA8DED91FC911197CA
:101120000284F385E02DCD010995512CD12CC12CE1
:10113000EA2DF0E0FA87E9872B2D30E03C872B87FA
:10114000A401440D511D47FC5A95588F4F8B69815E
:101150007A81660D711D67FC7A957E876D87798926
:10116000C71608F051CF2C2D30E04D815E81420F23
:10117000531FA985BA854A9FC0014B9F900D5A9F66
:10118000900D1124FC01E80DF91DF88BEF87852DDA
:10119000612C4F89588D420F531F5E8B4D8B671406
:1011A00008F050C044244394480E877041F4C101B4
:1011B0000196EB89FC89E20DF31DD4901C01D7FE4A
:1011C00019C0A98DBA8DED91FC91662D70E0B1E04A
:1011D000BB1219C0AB1217C02D853E85620F731F5D
:1011E0000484F585E02D2F8138854D895E89898DB0
:1011F0009A8D0995DD0C6394842DD1CF1E821D82BA
:101200001C821B8288CF4B815C81640F751FAB856C
:10121000BC856A9FC0016B9F900D7A9F900D112431
:1012200069817A81680F791F0684F785E02DEF8048
:10123000F88409851A859D014F855889898D9A8D75
:101240000995D8CF570CC3948ACF6A960FB6F894F5
:10125000DEBF0FBECDBFDF91CF911F910F91FF90E9
:10126000EF90DF90CF90BF90AF909F908F907F9046
:101270006F905F904F903F902F9008958F929F9224
:10128000AF92CF92EF92FF920F931F93CF93DF9382
:10129000EC01262F898D9A8D009709F051C06A3094
:1012A000D1F41D861C868D8948E0849F900111240D
:1012B0008E859F85820F931F9F878E8781E090E0A8
:1012C000DF91CF911F910F91FF90EF90CF90AF9052
:1012D0009F908F9008956D3089F3CC88AD888F8969
:1012E0008823C1F08C859D8536E0C39E800D911DBD
:1012F0001124488559854817590764F44E855F8540
:101300001D861C8638E0A39EC0011124840F951F02
:101310009F878E87EA88FB88088919894E855F85B3
:101320006C857D85CE010E9419072C898C859D8551
:1013300046E0249F800D911D11249D878C87BECF90
:101340006A3069F41D861C86FC013896E4912D896B
:101350008E859F85E29F800D911D1124ADCF6D304C
:1013600009F4ACCFFC0134963491631708F4A6CF8E
:101370003296E491E61708F4A1CFFC0132968590ED
:101380009490462F431B342F47E0349F800C911CD0
:101390001124F401329634913196E4913323A9F16A
:1013A000EE2399F1CC88F4013596E491AD884F890C
:1013B000442301F10E2E000CFF0BE30FF11DCE9E16
:1013C000A001CF9E500D11246C857D85460F571FBF
:1013D00068857985641775076CF44E855F851D8671
:1013E0001C86FC013896E491AE9E400D511D1124DF
:1013F0005F874E87EA88FB88088919894E855F8553
:101400006C857D85CE010E941907F4013496E49124
:101410002C898C859D85E29F800D911D11248DCF97
:101420006F927F928F929F92AF92BF92CF92DF92F4
:10143000EF92FF920F931F93CF93DF93EC016B0119
:101440005A0139014801E881F9810284F385E02DD0
:101450000995E881F9810288F389E02D87019301DC
:10146000A501B601CE010995A501480D591D4150B0
:101470005109E881F9810288F389E02D9301B601D1
:10148000CE010995E881F9810088F189E02D940168
:10149000A501B601CE010995C60CD71CB601615055
:1014A0007109E881F9810088F189E02D9401A50195
:1014B000CE010995E881F9810688F789E02DCE01F2
:1014C000DF91CF911F910F91FF90EF90DF90CF9020
:1014D000BF90AF909F908F907F906F9009946F9284
:1014E0007F928F929F92AF92BF92CF92DF92EF92B4
:1014F000FF920F931F93CF93DF935C01EB016A017F
:10150000490138018701DC01ED91FC9162177307F5
:1015100019F5641675062CF0962D872D3A01C92E03
:10152000D82E9601261937092F5F3F4F048CF58D71
:10153000E02DA301BE01C5010995DF91CF911F9157
:101540000F91FF90EF90DF90CF90BF90AF909F9062
:101550008F907F906F9008954615570591F4261748
:10156000370724F0892D4B01C22FD82F9E0128194F
:1015700039092F5F3F4F068CF78DE02DA601B4018E
:10158000DACF0284F385E02D0995D501ED91FC9128
:101590000488F589E02D83019401A601BE01C501EF
:1015A0000995D501ED91FC910688F789E02DC501DB
:1015B000DF91CF911F910F91FF90EF90DF90CF902F
:1015C000BF90AF909F908F907F906F900994EF9213
:1015D000FF920F931F93DC011A960D911C911B979C
:1015E00018962D913C911997ED91FC9100A0F1A1D5
:1015F000E02D7B0150E040E070E060E009951F9134
:101600000F91FF90EF9008954F925F926F927F92AB
:101610008F929F92AF92BF92CF92DF92EF92FF9202
:101620000F931F93CF93DF936C012B015A01390164
:101630004801DC01ED91FC910284F385E02D0995D0
:10164000E201640C751CD601ED91FC91C615D7051D
:101650005CF40088F189E02D87019401A501BE01A9
:10166000C60109952196EFCF0688F789E02DC601BE
:10167000DF91CF911F910F91FF90EF90DF90CF906E
:10168000BF90AF909F908F907F906F905F904F90A2
:1016900009948F929F92AF92BF92CF92DF92EF9276
:1016A000FF920F931F93CF93DF93EC015B014A01ED
:1016B0006901E881F9810284F385E02D099595019E
:1016C0002C0D3D1D21503109E881F9810488F589EF
:1016D000E02D78018401A401B501CE010995E881CE
:1016E000F9810688F789E02DCE01DF91CF911F9116
:1016F0000F91FF90EF90DF90CF90BF90AF909F90B1
:101700008F9009948F929F92AF92BF92CF92DF9267
:10171000EF92FF920F931F93CF93DF93EC015B0146
:101720004A0169017801E881F9810284F385E02D9D
:101730000995C80CD91C860101501109E881F9816D
:101740000488F589E02D9501A401B501CE01099524
:10175000E881F9810688F789E02DCE01DF91CF91EC
:101760001F910F91FF90EF90DF90CF90BF90AF90BF
:101770009F908F900994EF92FF920F931F93DC013B
:10178000ED91FC9100A0F1A1E02D09951F910F9121
:10179000FF90EF9008950F931F93DC01ED91FC9162
:1017A000068CF78DE02D09951F910F9108950F93E9
:1017B0001F93DC01ED91FC91048CF58DE02D0995D2
:1017C0001F910F910895DC01ED91FC910084F1854A
:1017D000E02D09946F927F928F929F92AF92BF9269
:1017E000CF92DF92EF92FF920F931F93CF93DF93ED
:1017F000EC018B013A016B018FEFC81AD80A9A01EC
:10180000A601BE018FE097E00E94E30B780181E022
:10181000E81AF1089301A701BE018FE097E00E944A
:10182000E30B4E018FEF881A980A9301A801B401C7
:101830008FE097E00E94E30B5E0181E0A81AB108F7
:101840009301A801B5018FE097E00E94E30B93019B
:10185000A801B4018FE097E00E94E30B9301A80177
:10186000B5018FE097E00E94E30B9301A801B4015A
:101870008FE097E00E94E30B9301A801B5018FE090
:1018800097E00E94E30B9301A601BE018FE097E071
:101890000E94E30B9301A601BE018FE097E00E9436
:1018A000E30B9301A701BE018FE097E00E94E30BD9
:1018B0009301A701BE018FE097E0DF91CF911F91C7
:1018C0000F91FF90EF90DF90CF90BF90AF909F90DF
:1018D0008F907F906F900C94E30B2F923F924F92DA
:1018E0005F926F927F928F929F92AF92BF92CF92B0
:1018F000DF92EF92FF920F931F93CF93DF9300D06D
:1019000000D000D0CDB7DEB73C016A013E832D8305
:10191000FC82EB825801A41AB50AB7FE03C0B19449
:10192000A194B1088D809E80861A970A97FE03C005
:101930009194819491088A149B045CF0902F812FDC
:101940000D811E819D838E839C2D8D2D6B01692FB2
:10195000782F0C151D055CF09D818E817E836D8333
:10196000692F782F902F812F8601C92ED82E16012E
:10197000201A310A2B012D813E81421A530A57FE4B
:1019800003C0519441945108710137FE03C03FEFE9
:10199000E31AF30AF594E7948D819E8186179707E1
:1019A0005CF5A1E0B0E0BA83A983C016D1064CF182
:1019B000D301ED91FC910484F585E02D2B813C81D0
:1019C000A8016D817E818A149B041CF04D815E818B
:1019D000B801C3010995E418F508F7FE0AC02D8186
:1019E0003E8189819A81280F391F3E832D83E20C25
:1019F000F31C0F5F1F4FD9CF2FEF3FEF3A8329839F
:101A0000D4CF26960FB6F894DEBF0FBECDBFDF91C0
:101A1000CF911F910F91FF90EF90DF90CF90BF90EB
:101A2000AF909F908F907F906F905F904F903F907E
:101A30002F900895089590E080E008954F925F926E
:101A40006F927F928F929F92AF92BF92CF92DF92CE
:101A5000EF92FF929C014A015B0184EF91E0B90192
:101A60000E94E8166B01770FEE08FF08A7019601A8
:101A7000220F331F441F551FC501B4010E94851654
:101A800029013A01812C912C540184149504A60457
:101A9000B704B4F461E082E00E949603C701B60186
:101AA0000E94270560E082E00E949603C701B6010C
:101AB0000E9427058FEF881A980AA80AB80AE5CF6E
:101AC00062E070E080E090E0FF90EF90DF90CF90D8
:101AD000BF90AF909F908F907F906F905F904F904E
:101AE0000C942705EF92FF920F931F934091D1031F
:101AF0005091D2036091D3037091D403EE24E39408
:101B0000F12C03E010E023E030E08FE097E00E944A
:101B1000040B1092DE031092DD038091DD0390919F
:101B2000DE032091DB033091DC0382179307D4F4AA
:101B3000880F991FFC01EE51FC4F608171818E5816
:101B40009A4F41E050E0FC01808191810E94EA0BB4
:101B50008091DD039091DE0301969093DE038093E4
:101B6000DD03DBCF1F910F91FF90EF900C941D06CA
:101B7000E8E0F1E088EF91E0DF019C011D92215047
:101B80003040E1F71092320780913307833508F433
:101B900083E58093330710923407809135078F32A5
:101BA00008F48FE28093350710921C0710921B07F0
:101BB00010921E0710921D0708958F929F92AF9268
:101BC000BF920F931F93CF93DF93CDB7DEB7A1974B
:101BD0000FB6F894DEBF0FBECDBF19A2423008F495
:101BE0004AE08E010F5D1F4F842E912CB12CA12C49
:101BF000A50194010E94B716E62FB901CA01EA3087
:101C000044F5E05DD801EE938D01232B242B252B89
:101C100079F790E080E0109769F0FD0101900020D5
:101C2000E9F73197AF014A1B5B0BBD018FE097E0ED
:101C30000E941703A1960FB6F894DEBF0FBECDBF6A
:101C4000DF91CF911F910F91BF90AF909F908F9098
:101C50000895E95CD7CFCF92DF92EF92FF92CF93B6
:101C6000DF936C01990FEE08FF08F7FE19C06DE2D3
:101C70008FE097E00E943E09EC0166277727CB01B1
:101C80006C197D098E099F094AE00E94DD0D8C0FB9
:101C90009D1FDF91CF91FF90EF90DF90CF9008953F
:101CA0004AE0C701B601DF91CF91FF90EF90DF903E
:101CB000CF900C94DD0DFC0101900020E9F73197E5
:101CC000AF01481B590BBC018FE097E00C94170340
:101CD0000E943B181F93CF93DF9385ED8093BC0048
:101CE0008091590390915A03A0915B03B0915C03DA
:101CF0000796A11DB11D23E0B695A79597958795E9
:101D00002A95D1F72091BC0024FD03C01092A103B5
:101D100052C04091590350915A0360915B037091F6
:101D20005C03452B462B472B69F30097A105B105B2
:101D300041F025E32A95F1F700000197A109B109C7
:101D4000E1CF80915803C1E0C0935703882399F1F4
:101D5000D091B8001091BA008091BC008A7B80932A
:101D6000BC0060E082E10E94960360E083E10E9493
:101D700096031092A103C093A3031092A20361E003
:101D800082E10E94960361E083E10E9496038091C4
:101D9000B9008E7F8093B9008091B9008D7F8093C8
:101DA000B90088E48093B80085E48093BC00109368
:101DB000BA00D093B800DF91CF911F9108951F9280
:101DC0000F920FB60F9211242F933F938F939F93EF
:101DD000AF93BF938091CD039091CE03A091CF0399
:101DE000B091D0033091C70323E0230F2D3758F56E
:101DF0000196A11DB11D2093C7038093CD0390933D
:101E0000CE03A093CF03B093D0038091C8039091E9
:101E1000C903A091CA03B091CB030196A11DB11DC6
:101E20008093C8039093C903A093CA03B093CB03D4
:101E3000BF91AF919F918F913F912F910F900FBEC6
:101E40000F901F90189526E8230F0296A11DB11D33
:101E5000D2CF1F920F920FB60F9211242F933F9360
:101E60004F935F936F937F938F939F93AF93BF93A2
:101E7000EF93FF938091B900887F803609F44AC0C0
:101E8000F0F5883209F4A5C018F5803109F499C03D
:101E9000B8F4882309F4F5C0883009F492C0FF91A2
:101EA000EF91BF91AF919F918F917F916F915F91D2
:101EB0004F913F912F910F900FBE0F901F9018954B
:101EC000883109F486C0803251F78093A00314C092
:101ED000803409F49BC040F48033B9F38833F9F6B9
:101EE0008093A00385ECAEC0803509F483C08835AB
:101EF00009F494C0883499F60E946A0ED0CF8839CC
:101F000009F48AC038F5883729F050F4883611F082
:101F1000803729F683E08093A10310929F0355C078
:101F2000883809F479C0803919F0803809F0B7CFC2
:101F300080919F03803208F06FC0E0919F0381E0A1
:101F40008E0F80939F038091BB00F0E0E158FC4F1F
:101F500080833BC0803B39F0D0F4803A09F477C0ED
:101F6000883A09F09CCF84E08093A10310927E030D
:101F700010927D03F0E0E0E0099580917D038111EE
:101F80000FC081E080937D0310925D0309C0803C07
:101F900009F4A8CF883C09F4A5CF883B09F07FCF8E
:101FA000E0917E0381E08E0F80937E03F0E0E35AA0
:101FB000FC4F80818093BB0090917E0380917D03D4
:101FC00029C08091C6038093BB0085EC8093BC0040
:101FD00066CF9091C5038091C403981758F5E0919E
:101FE000C50381E08E0F8093C503F0E0EC55FC4FF4
:101FF0008081E9CFE091C50381E08E0F8093C50316
:102000008091BB00F0E0EC55FC4F80839091C503BC
:102010008091C4039817C8F285E8D8CFE091C50332
:1020200081E08E0F8093C5038091BB00F0E0EC55FA
:10203000FC4F80838091A30381115ECF81E0809368
:10204000A20384EA8093BC001092A10328CF85EC00
:102050008093BC001092A10380919F03803230F4E2
:10206000E0919F03F0E0E158FC4F108260919F03E4
:1020700070E08FE793E0F0E0E0E0099510929F03B5
:102080000ECF1092A00338CF0F931F93CF93DF93FF
:10209000CFE0D7E01B821A8224E530E03D832C8319
:1020A00080E390E09F838E83398728879B878A8788
:1020B0001E8A1D861C861F861E8681E08D8B8C8B5A
:1020C0002FEF3FEF3B8B2A8B398B288B8F8B188E12
:1020D0001A8E198E8EE093E0998388838CE190E0CC
:1020E0000E9416178C0188E0D8011B968C931B97D1
:1020F00084E01C968C931C978FEF1E968C931E97F2
:1021000085E01D968C931D97E6EBF5E0E491F0E0F9
:10211000EE0FFF1FEC55FA4F85919491F801968BC5
:10212000858BE8E9F5E0E4915A96EC935A97E3EB56
:10213000F5E0E491F0E0EE0FFF1FEC55FA4F8591CA
:102140009491F801908B8787E5E9F5E0E491579643
:10215000EC935797E2EBF5E0E491F0E0EE0FFF1F10
:10216000EC55FA4F85919491F801928B818BE4E9BB
:10217000F5E0E4915996EC9380E099E0ADE3B0E0AE
:10218000F80184839583A683B78381E090E09187EB
:1021900080871286138E82E090E00E94161720E559
:1021A000DC012C9311961C92F80193838283118297
:1021B00010821C8F0B8F87E08E8F89E08D8FDF91CF
:1021C000CF911F910F910895789484B5826084BD5A
:1021D00084B5816084BD85B5826085BD85B581602B
:1021E00085BD80916E00816080936E0010928100A9
:1021F0008091810082608093810080918100816064
:102200008093810080918000816080938000809124
:10221000B10084608093B1008091B00081608093B0
:10222000B00080917A00846080937A0080917A0077
:10223000826080937A0080917A00816080937A0036
:1022400080917A00806880937A001092C100C091DA
:102250002A07D0912B0761E08B850E94C40361E0BF
:102260008B850E94960388819981892B09F4F8C097
:102270001FB7F8948091CC03811127C0E8EBF5E0FB
:102280008491EAE9F5E09491E82FF0E0EE0FFF1F6A
:10229000E458FA4FA591B491EC91E92321F461E05F
:1022A0008AE00E94960361E08AE00E94C4038CB534
:1022B00080618CBD8CB580648CBD61E08DE00E9436
:1022C000C40361E08BE00E94C4038091CC038F5F64
:1022D0008093CC031FBF81E08B8F61E080912D073D
:1022E0000E94C40380912C0787FD03C061E00E9417
:1022F000C40384E080932F0788E280932E07109216
:102300003007109231070E94DF051092320780914A
:102310003307833508F483E580933307109234073D
:10232000809135078F3208F48FE2809335070E9441
:102330001D0682E30E94C8050E94B80D60E088E097
:102340000E94C40360E08BE00E94C40360E08CE064
:102350000E94C40360E08AE00E94C40360E089E058
:102360000E94C40361E082E00E94C40361E083E054
:102370000E94C40361E088E00E94960361E08BE064
:102380000E94960361E08CE00E94960361E08AE07F
:102390000E94960361E089E00E94960368E783E06B
:1023A0000E94960388E090E09093DC038093DB0327
:1023B000809117079091180797FD0196959587953D
:1023C0009093D4038093D3038091190790911A07B7
:1023D00097FD0196959587959093D2038093D103AD
:1023E00060EA7FE080E090E00E942705E2EEF3E003
:1023F000A2E7B5E089E190E02AE030E08D939D937B
:102400002193319303978E3F4FEF9407B9F71092C2
:10241000DE031092DD038091DD039091DE032091B5
:10242000DB033091DC0382179307C4F5880F991FF3
:10243000FC01EE51FC4F608171818E589A4F41E052
:1024400050E0DC018D919C910E94EA0B8091DD03AC
:102450009091DE0301969093DE038093DD03DBCF42
:1024600061E08C850E94C4038A858B7F60E009F05F
:1024700061E08C850E9496038D858F3F39F061E085
:102480000E94C40361E08D850E9496038E858F3F74
:1024900009F421CF60E00E94C4031DCF0E941D06F5
:1024A00081E080930207A8E14A2E55245394612CC1
:1024B000712CC1E0D0E0E8E22E2E312CFEE18F2E0F
:1024C000912C88E00E946D035C0190930E0780932D
:1024D0000D078AE00E946D038C0190930C07809396
:1024E0000B078BE00E946D036C0190930A078093A9
:1024F00009078CE00E946D037C019093080780938C
:10250000070789E00E946D039093060780930507F3
:102510002091030730910407232B19F5AB2809F00C
:1025200067C120910207211163C181E08093E1031B
:102530001092E0031092DF03809172059091730571
:10254000039790930301809302018091E20390919D
:10255000E3039093010180930001D0930407C0939B
:1025600003072FB7F8946091CD037091CE0380914B
:10257000CF039091D0032FBF20910401309105012A
:1025800040910601509107010E94B716672B682BF6
:10259000692B09F0F8C28091030790910407892BF9
:1025A00009F04EC080917205909173052091020749
:1025B000222379F09C012D5F3F4F3093030120933C
:1025C00002012091E2033091E30330930101209353
:1025D00000012091E103222379F09C01235031096D
:1025E00030930301209302012091E2033091E30331
:1025F00030930101209300012091E003222371F028
:102600002091E2033091E30323503109309301011B
:102610002093000190930301809302012091DF0336
:10262000222371F02091E2033091E3032D5F3F4FAD
:1026300030930101209300019093030180930201E4
:102640001092040710920307D093DE03C093DD03BA
:10265000FF24F3946CE0A62EB12C0FE010E078E09C
:10266000C72ED12C8091DD039091DE03E091DB0336
:10267000F091DC0320917205309173058E179F074E
:102680000CF04FC1880F991FFC01EE58FA4F4081A2
:1026900051814217530709F0A1C08E519C4FDC01B4
:1026A0002D913C918091E2039091E3032817390723
:1026B00009F094C081E090E00E946F16E82E8093AC
:1026C000DA0390E080E00E946F168093D9032E2DEC
:1026D00030E0322F2227820F932F911D9093D80341
:1026E0008093D7034091D5036091D603242F362FD2
:1026F0008217930790F43093D8032093D703609305
:10270000DA034093D90381E090E00E94771660914C
:10271000D90390E080E00E9477160E94B80DD09314
:102720002207C0932107D0932007C0931F07F09280
:102730002307F0922407E4E1F0E0F0931C07E09314
:102740001B07B0921E07A0921D078DE393E00E9425
:102750005B0E10931C0700931B0790921E0780923C
:102760001D0787E493E00E945B0E8091D503909152
:10277000D6030E942B0E10931C0700931B07309268
:102780001E0720921D078FE493E00E945B0E60916C
:10279000D7037091D80390E080E04AE00E94DD0DFD
:1027A0000E941D0648E853E160E070E084E190E09B
:1027B0000E941E0D0E94B80DD092DC03C092DB0374
:1027C0001092D6031092D503409204015092050155
:1027D00060920601709207010E94720D8091DD03E4
:1027E0009091DE0301969093DE038093DD033ACF50
:1027F000CD2889F42091E10321110DC081E080935F
:1028000002071092E0031092DF038091720590910D
:102810007305039696CEEF28E9F42091DF0321118A
:1028200019C081E08093E0031092E1031092020747
:102830008091E2039091E3030397909301018093C9
:10284000000180917205909173059093030180932C
:10285000020183CE012B89F42091E00321110DC0E8
:1028600081E08093DF031092E103109202078091D0
:10287000E2039091E3030396E0CF892B09F071CE38
:102880000E94B80DD0932207C0932107D093200750
:10289000C0931F0785E090E09093DE038093DD03F3
:1028A00011E08091DD039091DE0318161906B4F54E
:1028B000E9E1F0E0F0931C07E0931B078AE090E069
:1028C00090931E0780931D071093230710932407EE
:1028D00086E393E00E945B0E30921C0720921B0758
:1028E00090921E0780921D078091DD039091DE0378
:1028F0000E942B0E0E941D0668EE73E080E090E0BF
:102900000E9427050E94B80D8091DD039091DE039F
:1029100001979093DE038093DD03C3CF0E94720D75
:1029200020CE6091D3037091D4036217730771F0C6
:10293000CB0101968217930749F0019682179307FE
:1029400029F003978217930709F076C08091E2037C
:102950009091E3034091D1035091D20384179507DE
:1029600089F09A012F5F3F4F8217930759F02F5F2D
:102970003F4F8217930731F0235031098217930795
:1029800009F05AC08091D5039091D6030196909397
:10299000D6038093D5033196F093DC03E093DB03F9
:1029A0008091040190910501A0910601B091070169
:1029B0008A359105A105B10558F04497A109B109DF
:1029C0008093040190930501A0930601B093070141
:1029D000F12CE12C03E010E023E030E08FE097E001
:1029E0000E94040B0E941D0642E350E060E070E08C
:1029F00083E290E00E941E0D0E9417162FE430E043
:102A000040E050E00E9485166F5F7F4F8F4F9F4FD1
:102A10007093D4036093D3030E94171627E230E02B
:102A200040E050E00E9485166F5F7F4F8F4F9F4FB1
:102A30007093D2036093D1038091020190910301BE
:102A40001816190634F08C5A9F4F90930301809307
:102A5000020180910201909103018435910534F0C7
:102A600084559109909303018093020180910001A4
:102A700090910101181619062CF0C096909301014F
:102A800080930001809100019091010180339105B4
:102A90002CF0C09790930101809300018091DB039B
:102AA0009091DC03C0900201D0900301E0900001FE
:102AB000F0900101E2EEF3E022E7A22E25E0B22E33
:102AC00030E020E082179307CCF0D5014D915D9165
:102AD0005D01619171918D0102501109D801CC9273
:102AE0001196DC928F0102501109D801EC921196D7
:102AF000FC922F5F3F4F7B016A01E4CF97FF02C03A
:102B00008FEF9FEF01969093DE038093DD03C092D9
:102B10000201D0920301E0920001F0920101409184
:102B2000D1035091D2036091D3037091D403EE246A
:102B3000E394F12C02E010E022E030E08FE097E037
:102B40000E94040B6091E2037091E30341E050E0C6
:102B500080917205909173050E94EA0BE091DB036E
:102B6000F091DC03EE0FFF1FDF01AE51BC4F6D9102
:102B70007C91EE58FA4F50E040E0808191810E94B4
:102B8000EA0B0E941D0680E090E0892B09F499CCA5
:102B90000E9400008ECC8F929F92AF92BF92CF92F4
:102BA000DF92EF92FF92CF93DF93EC0168817981FE
:102BB0008A819B81611571058105910521F464E28B
:102BC00079ED8BE597E02DE133EF41E050E00E9495
:102BD000851649015A019B01AC01A7EAB1E40E94A4
:102BE000A4166B017C01ACEEB4EFA50194010E9428
:102BF000B216C60ED71EE81EF91EF7FE06C081E00B
:102C0000C81AD108E10880E8F80AC882D982EA82A5
:102C1000FB82C701B6019F77DF91CF91FF90EF90C4
:102C2000DF90CF90BF90AF909F908F9008958F923C
:102C30009F92AF92BF92CF92DF92EF92FF926091FC
:102C400000037091010380910203909103036115C9
:102C500071058105910521F464E279ED8BE597E03A
:102C60002DE133EF41E050E00E94851649015A0101
:102C70009B01AC01A7EAB1E40E94A4166B017C01A0
:102C8000ACEEB4EFA50194010E94B216C60ED71E99
:102C9000E81EF91EF7FE06C081E0C81AD108E10857
:102CA00080E8F80AC0920003D0920103E092020388
:102CB000F0920303C701B6019F77FF90EF90DF907A
:102CC000CF90BF90AF909F908F9008956093000336
:102CD0007093010380930203909303030895F9997D
:102CE000FECF92BD81BDF89A992780B50895262F11
:102CF000F999FECF1FBA92BD81BD20BD0FB6F894E1
:102D0000FA9AF99A0FBE01960895052E97FB1EF4C4
:102D100000940E949C1657FD07D00E94B71607FC2E
:102D200003D04EF40C949C16509540953095219507
:102D30003F4F4F4F5F4F08959095809570956195E7
:102D40007F4F8F4F9F4F08950E94D916A59F900DDA
:102D5000B49F900DA49F800D911D11240895B7FF7D
:102D60000C94A4160E94A416821B930B0895A1E252
:102D70001A2EAA1BBB1BFD010DC0AA1FBB1FEE1FF5
:102D8000FF1FA217B307E407F50720F0A21BB30B40
:102D9000E40BF50B661F771F881F991F1A9469F7BC
:102DA00060957095809590959B01AC01BD01CF0118
:102DB0000895A29FB001B39FC001A39F700D811D14
:102DC0001124911DB29F700D811D1124911D089534
:102DD00097FB072E16F4009407D077FD09D00E94C8
:102DE000FC1607FC05D03EF4909581959F4F089501
:102DF000709561957F4F0895AA1BBB1B51E107C0D9
:102E0000AA1FBB1FA617B70710F0A61BB70B881F7A
:102E1000991F5A95A9F780959095BC01CD01089509
:102E2000EE0FFF1F0590F491E02D09940F931F936F
:102E3000CF93DF938230910510F482E090E0E0912F
:102E40003807F091390730E020E0B0E0A0E030979B
:102E500099F42115310509F44AC0281B390B243097
:102E60003105D8F58A819B816115710589F1FB01D6
:102E700093838283FE0111C04081518102811381BD
:102E800048175907E0F04817590799F4109761F06F
:102E900012960C93129713961C933296CF01DF91E2
:102EA000CF911F910F910895009338071093390720
:102EB000F4CF2115310551F04217530738F0A9011D
:102EC000DB019A01BD01DF01F801C1CFEF01F9CFAC
:102ED0009093390780933807CDCFFE01E20FF31F9F
:102EE000819391932250310939832883D7CF209140
:102EF000360730913707232B41F420910603309198
:102F0000070330933707209336072091040330914D
:102F100005032115310541F42DB73EB74091080353
:102F200050910903241B350BE0913607F0913707C8
:102F3000E217F307A0F42E1B3F0B2817390778F090
:102F4000AC014E5F5F4F2417350748F04E0F5F1FEF
:102F50005093370740933607819391939FCFF0E0CA
:102F6000E0E09CCFCF93DF930097E9F0FC0132972C
:102F700013821282A0913807B0913907ED0130E039
:102F800020E01097A1F420813181820F931F2091BE
:102F90003607309137072817390709F061C0F093D9
:102FA0003707E0933607DF91CF910895EA01CE17F6
:102FB000DF07E8F54A815B819E0141155105B1F7B4
:102FC000E901FB83EA8349915991C40FD51FEC179E
:102FD000FD0761F4808191810296840F951FE901BC
:102FE00099838883828193819B838A83F0E0E0E0E8
:102FF00012968D919C9113970097B9F52D913C9164
:103000001197CD010296820F931F209136073091C0
:1030100037072817390739F6309751F510923907D5
:1030200010923807B0933707A0933607BCCFD383ED
:10303000C28340815181840F951FC817D90761F45D
:103040004E5F5F4F88819981480F591F518340839C
:103050008A819B81938382832115310509F0B0CF4A
:10306000F0933907E09338079ECFFD01DC01C0CF14
:1030700013821282D7CF81E090E0F8940C9440182C
:10308000F894FFCF0A000A001801000000000000B9
:103090000000000000000000000000000000000030
:1030A0000000000000000000000000000000000020
:1030B0000000C0E0F0F8FCFCFEFFFCE000000000B7
:1030C0000000000000000000000000000000000000
:1030D00000000000000000000000000000000000F0
:1030E00000000000000000000000000000000000E0
:1030F00000F8F8F8F8F8F8F8F8F8F8F8F8F0F0E070
:10310000E0C080C0FCFFFFFFFF7F3F7FFFFFFFFFAE
:10311000FF000000000000000000000000000000B0
:10312000000000000000000000000000000000009F
:10313000000000000000000000000000000000008F
:103140000000000000000F1F3F7FFFFFFFFFFFFF99
:10315000FFFFE7C7C7878F9F9FFFFFFFC1C0E0FC4E
:10316000FFFFFFFFFFFCFCFCFCFEFEFEFCFCF8F892
:10317000F0E0C0C0000000000000000000000000FF
:10318000000000000000000000000000000000003F
:103190000000000000000000000000000080C0E00F
:1031A000F1FBFFFFFFFFFF7F1F0F0F87E7FFFFFF11
:1031B0001F1F3FF9F8F8F8F8F8F8FDFFFFFFFFFFD1
:1031C000FFFFFFFF7F3F0F0701000000000000002E
:1031D00000000000000000000000000000000000EF
:1031E000000000000000000000000000000000F0EF
:1031F000FEFFFFFFFFFFFFFFFFFFFFFE7E3F3F0FD2
:103200001FFFFFFFFCF0E0F1FFFFFFFFFFFCF001FD
:1032100001010101010101000000000000000000A7
:10322000000000000000000000000000000000009E
:10323000000000000000000000000000000000008E
:103240000000000303030303030303010101010062
:10325000000000000000030F1F3F7F7FFFFFFFFF04
:103260007F7F1F030000000000000000000000003E
:10327000000000000000000000000000000000004E
:10328000000000000100000000003A07800000007C
:1032900000003E0917031B0D1A0D93061603E30BDE
:1032A000BB0BD70BCB0B6D0C160304078206820BEE
:1032B000490B040BE70A6F0A100A50415553454465
:1032C0000047616D65204F7665720053636F7265CC
:0A32D0003A2000486967683A2000C0
:107E0000112484B714BE81FFF0D085E080938100F7
:107E100082E08093C00088E18093C10086E0809377
:107E2000C20080E18093C4008EE0C9D0259A86E02C
:107E300020E33CEF91E0309385002093840096BBD3
:107E4000B09BFECF1D9AA8958150A9F7CC24DD24C4
:107E500088248394B5E0AB2EA1E19A2EF3E0BF2EE7
:107E6000A2D0813461F49FD0082FAFD0023811F036
:107E7000013811F484E001C083E08DD089C08234E0
:107E800011F484E103C0853419F485E0A6D080C0E4
:107E9000853579F488D0E82EFF2485D0082F10E0AE
:107EA000102F00270E291F29000F111F8ED06801E7
:107EB0006FC0863521F484E090D080E0DECF843638
:107EC00009F040C070D06FD0082F6DD080E0C81688
:107ED00080E7D80618F4F601B7BEE895C0E0D1E017
:107EE00062D089930C17E1F7F0E0CF16F0E7DF06D8
:107EF00018F0F601B7BEE89568D007B600FCFDCFD4
:107F0000A601A0E0B1E02C9130E011968C91119780
:107F100090E0982F8827822B932B1296FA010C0160
:107F200087BEE89511244E5F5F4FF1E0A038BF0790
:107F300051F7F601A7BEE89507B600FCFDCF97BE46
:107F4000E89526C08437B1F42ED02DD0F82E2BD052
:107F50003CD0F601EF2C8F010F5F1F4F84911BD097
:107F6000EA94F801C1F70894C11CD11CFA94CF0C13
:107F7000D11C0EC0853739F428D08EE10CD085E9AC
:107F80000AD08FE07ACF813511F488E018D01DD067
:107F900080E101D065CF982F8091C00085FFFCCF94
:107FA0009093C60008958091C00087FFFCCF809118
:107FB000C00084FD01C0A8958091C6000895E0E648
:107FC000F0E098E1908380830895EDDF803219F02E
:107FD00088E0F5DFFFCF84E1DECF1F93182FE3DFCA
:107FE0001150E9F7F2DF1F91089580E0E8DFEE27F6
:047FF000FF270994CA
:027FFE00040479
:00000001FF
