:020000040000FA
:100000000C94E2020C940A030C940A030C940A0365
:100010000C940A030C940A030C940A030C940A032C
:100020000C940A030C940A030C940A030C940A031C
:100030000C940A030C940A030C940A030C940A030C
:100040000C941B100C940A030C94E90F0C94C30F2E
:100050000C940A030C940A030C940A030C940A03EC
:100060000C9465100C940A0300000000003E5B4FE6
:100070005B3E3E6B4F6B3E1C3E7C3E1C183C7E3C08
:10008000181C577D571C1C5E7F5E1C00183C180016
:10009000FFE7C3E7FF0018241800FFE7DBE7FF30A6
:1000A000483A060E2629792926407F050507407F14
:1000B00005253F5A3CE73C5A7F3E1C1C08081C1C87
:1000C0003E7F14227F22145F5F005F5F06097F017D
:1000D0007F006689956A606060606094A2FFA29468
:1000E00008047E040810207E201008082A1C080836
:1000F0001C2A08081E101010100C1E0C1E0C303884
:100100003E3830060E3E0E06000000000000005F84
:1001100000000007000700147F147F14242A7F2AA0
:100120001223130864623649562050000807030062
:10013000001C2241000041221C002A1C7F1C2A08AE
:10014000083E080800807030000808080808000011
:1001500060600020100804023E5149453E00427F85
:10016000400072494949462141494D331814127FD4
:100170001027454545393C4A494931412111090774
:100180003649494936464949291E000014000000F5
:1001900040340000000814224114141414140041C7
:1001A00022140802015909063E415D594E7C121184
:1001B000127C7F494949363E414141227F414141BC
:1001C0003E7F494949417F090909013E4141517337
:1001D0007F0808087F00417F41002040413F017FA8
:1001E000081422417F404040407F021C027F7F0470
:1001F00008107F3E4141413E7F090909063E4151B9
:10020000215E7F09192946264949493203017F01A8
:10021000033F4040403F1F2040201F3F4038403FA9
:10022000631408146303047804036159494D4300BF
:100230007F4141410204081020004141417F0402F6
:10024000010204404040404000030708002054548D
:1002500078407F284444383844444428384444286B
:100260007F385454541800087E090218A4A49C78BE
:100270007F0804047800447D40002040403D007F1A
:100280001028440000417F40007C047804787C08FA
:100290000404783844444438FC18242418182424CE
:1002A00018FC7C08040408485454542404043F44B3
:1002B000243C4040207C1C2040201C3C4030403CE2
:1002C00044281028444C9090907C4464544C440042
:1002D00008364100000077000000413608000201A6
:1002E0000204023C2623263C1EA1A161123A404092
:1002F000207A38545455592155557941225454780F
:1003000042215554784020545579400C1E527212A7
:100310003955555559395454545939555454580030
:1003200000457C410002457D420001457C407D1234
:1003300011127DF0282528F07C5455450020545496
:100340007C547C0A097F4932494949323A44444441
:100350003A324A4848303A4141217A3A424020787C
:10036000009DA0A07D3D4242423D3D4040403D3C7D
:1003700024FF2424487E4943662B2FFC2F2BFF09A2
:1003800029F620C0887E0903205454794100004496
:100390007D413048484A32384040227A007A0A0A81
:1003A000727D0D19317D2629292F282629292926F4
:1003B00030484D4020380808080808080808382F39
:1003C00010C8ACBA2F102834FA00007B00000814C3
:1003D0002A142222142A14085500550055AA55AA99
:1003E00055AAFF55FF55FF000000FF00101010FF39
:1003F00000141414FF001010FF00FF1010F010F094
:10040000141414FC001414F700FF0000FF00FF1484
:1004100014F404FC141417101F10101F101F1414D0
:10042000141F00101010F0000000001F101010101A
:100430001F10101010F010000000FF10101010100E
:1004400010101010FF10000000FF140000FF00FF4C
:1004500000001F10170000FC04F4141417101714E8
:1004600014F404F40000FF00F7141414141414140A
:10047000F700F7141414171410101F101F1414147D
:10048000F4141010F010F000001F101F0000001FE7
:1004900014000000FC140000F010F01010FF10FF1A
:1004A000141414FF141010101F00000000F010FFAF
:1004B000FFFFFFFFF0F0F0F0F0FFFFFF0000000093
:1004C00000FFFF0F0F0F0F0F3844443844FC4A4A17
:1004D0004A347E02020606027E027E0263554941CC
:1004E000633844443C04407E201E2006027E020203
:1004F00099A5E7A5991C2A492A1C4C7201724C3017
:100500004A4D4D303048784830BC625A463D3E49ED
:100510004949007E0101017E2A2A2A2A2A44445F91
:10052000444440514A444040444A51400000FF0185
:1005300003E080FF000008086B6B08361236243693
:10054000060F090F060000181800000010100030F8
:1005500040FF0101001F01011E00191D1712003C80
:100560003C3C3C00000000000000000800020100CC
:10057000000304070000000000000000000000006D
:10058000240027002A000000000023002600290084
:10059000010204081020408001020408102001021A
:1005A0000408102000000000250028002B0004048F
:1005B000040404040404020202020202030303030B
:1005C0000303801111241FBECFEFD8E0DEBFCDBFE3
:1005D00013E0A0E0B1E0E8E5F4E302C005900D927D
:1005E000A239B107D9F728E0A2E9B3E001C01D9212
:1005F000A331B207E1F712E0C2EED2E004C02197C6
:10060000FE010E94FA18C13ED107C9F70E944C12A0
:100610000C942A1A0C940000FC0120812EBD0DB40C
:1006200007FEFDCF2EB5FC01208308950895AF92FB
:10063000BF92CF92DF92EF92FF920F931F93CF93CF
:10064000DF936C017B018B01040F151FEB015E0131
:10065000AE18BF08C017D10759F06991D601ED91C6
:10066000FC910190F081E02DC6010995892B79F765
:10067000C501DF91CF911F910F91FF90EF90DF9017
:10068000CF90BF90AF900895FC01538D448D252FDE
:1006900030E0842F90E0821B930B541710F0CF961C
:1006A000089501970895FC01918D828D981761F04E
:1006B000A28DAE0FBF2FB11D5D968C91928D9F5F65
:1006C0009F73928F90E008958FEF9FEF0895FC0144
:1006D000918D828D981731F0828DE80FF11D858DF7
:1006E00090E008958FEF9FEF0895FC01918D228D8A
:1006F000892F90E0805C9F4F821B91098F7399270F
:1007000008958BE497E00E94750321E0892B09F49A
:1007100020E0822F089580E090E0892B29F00E944C
:10072000810381110C9400000895FC01A48DA80F91
:10073000B92FB11DA35ABF4F2C91848D90E0019623
:100740008F739927848FA689B7892C93A089B18943
:100750008C91837080648C93938D848D981306C0E4
:100760000288F389E02D80818F7D80830895EF9248
:10077000FF920F931F93CF93DF93EC0181E0888F5B
:100780009B8D8C8D98131AC0E889F989808185FF2B
:1007900015C09FB7F894EE89FF896083E889F989CD
:1007A00080818370806480839FBF81E090E0DF91CF
:1007B000CF911F910F91FF90EF900895F62E0B8D22
:1007C00010E00F5F1F4F0F731127E02E8C8D8E11DD
:1007D0000CC00FB607FCFACFE889F989808185FF44
:1007E000F5CFCE010E949503F1CFEB8DEC0FFD2FDD
:1007F000F11DE35AFF4FF0829FB7F8940B8FEA89FF
:10080000FB8980818062CFCFCF93DF93EC01888D0D
:100810008823B9F0AA89BB89E889F9898C9185FD7B
:1008200003C0808186FD0DC00FB607FCF7CF8C9109
:1008300085FFF2CF808185FFEDCFCE010E94950329
:10084000E9CFDF91CF910895833081F028F4813092
:1008500099F08230A9F008958730A9F08830C9F066
:100860008430B1F4809180008F7D03C0809180003E
:100870008F7780938000089584B58F7784BD089525
:1008800084B58F7DFBCF8091B0008F778093B000CF
:1008900008958091B0008F7DF9CFCF93DF93282FFB
:1008A00030E0F901E859FA4F8491F901E057FA4F25
:1008B000D491F901E255FA4FC491CC23A1F08111F2
:1008C0000E942404EC2FF0E0EE0FFF1FEA57FA4FCE
:1008D000A591B491EC91ED2381E090E009F480E0E2
:1008E000DF91CF91089580E090E0FACF1F93CF93EE
:1008F000DF93282F30E0F901E859FA4F8491F9018C
:10090000E057FA4FD491F901E255FA4FC491CC2344
:10091000A9F0162F81110E942404EC2FF0E0EE0FB5
:10092000FF1FEC55FA4FA591B4918FB7F894EC9155
:10093000111108C0D095DE23DC938FBFDF91CF91DA
:100940001F910895DE2BF8CFCF93DF9390E0FC0149
:10095000E057FA4F249182559A4FFC0184918823E5
:10096000D1F090E0880F991FFC01E458FA4FA5914F
:10097000B491FC01EC55FA4FC591D49161110EC0B0
:100980009FB7F8948C91E22FE0958E238C93288169
:10099000E223E8839FBFDF91CF9108958FB7F8944A
:1009A000EC91E22BEC938FBFF6CF8230910538F0BB
:1009B000880F991F880F991F05970197F1F70895E0
:1009C0009F92AF92BF92CF92DF92EF92FF920F93DE
:1009D0001F93CF93DF93EC016B018885998511E01C
:1009E000892B09F010E8F601A0808A2D8123992433
:1009F00093948111912C2C813D814E815F8160E225
:100A000071EA87E090E00E94A118022FB12CE22E3B
:100A1000F12C002319F0C7010E94D5048A85877F35
:100A200009F04FC08D858F3F89F09A2D912381E089
:100A300009F480E0891551F0EF85F8898F899923B1
:100A4000D1F19081892B808399249394E989FA8943
:100A50008081998D892B8083002319F0C7010E9422
:100A6000D5048E858F3F39F0EB89FC898081988D84
:100A7000892309F0B12AE989FA899081898D8095C5
:100A8000892380838E858F3F11F0F601B08288859F
:100A90009985892B09F044C0110F1111BACFDF914C
:100AA000CF911F910F91FF90EF90DF90CF90BF906B
:100AB000AF909F9008959081809589238083912C99
:100AC000C5CFE989FA898081998D892B808300239C
:100AD00019F0C7010E94D5048D858F3F49F0EF853D
:100AE000F8898F899A2D9123B9F09081892B808381
:100AF000E989FA899081898D8095892380838E8503
:100B00008F3F09F4BFCFEB89FC898081988D8923C1
:100B100009F4B8CFB12AB6CF908180958923E7CF69
:100B20001695BBCFAF92BF92CF92DF92EF92FF921A
:100B30000F931F93CF93DF931F92CDB7DEB78C0136
:100B40005B016A01DC018D919C911197892B39F031
:100B50001296ED91FC91908181819CBD8DBD60E0EC
:100B6000F80183850E9476047501CA0CDB1CCE1443
:100B7000DF04A9F0D7018D917D018983F80180817F
:100B80009181892B29F0CE0101960E940C03EFCFB1
:100B9000BE016F5F7F4FC8010E94E004E8CF61E0B3
:100BA000D8011B968C910E94760481E00F90DF9112
:100BB000CF911F910F91FF90EF90DF90CF90BF905A
:100BC000AF9008953FB7F894809104049091050484
:100BD000A0910604B091070426B5A89B05C02F3F3D
:100BE00019F00196A11DB11D3FBFBA2FA92F982F53
:100BF0008827BC01CD01620F711D811D911D42E04E
:100C0000660F771F881F991F4A95D1F708958F9215
:100C10009F92AF92BF92CF92DF92EF92FF926B01C1
:100C20007C010E94E2054B015C01C114D104E10486
:100C3000F104B9F00E94E205681979098A099B0953
:100C4000683E73408105910580F321E0C21AD10806
:100C5000E108F10888EE880E83E0981EA11CB11C03
:100C6000E4CFFF90EF90DF90CF90BF90AF909F9038
:100C70008F9008952091B903260F3327331F213217
:100C80003105ECF42091DD03FC0190E080E024309C
:100C900069F082E00895A091B9032191AC01475613
:100CA0005C4FA40FB52FB11D2C930196861798F3B6
:100CB0008091B903680F6093B90380E0089581E0E3
:100CC00008958FEF9FEF08958FEF9FEF0895809124
:100CD000920390E09195819591090895CF93DF93C8
:100CE000CB01EA01642F0E943A06CE01DF91CF9139
:100CF0000895CF93DF931F92CDB7DEB7698361E08C
:100D0000CE0101960E943A0681E090E00F90DF91BB
:100D1000CF9108950F931F93CF93DF931F92CDB779
:100D2000DEB78C01698360E0FC01868D0E94760449
:100D300041E050E0BE016F5F7F4FF801838D948DDD
:100D40000E9492050F90DF91CF911F910F9108950E
:100D5000CF93C82F87FDCFE7C093070861E288EEE5
:100D600097E00E948A066C2F606888EE97E00E94E8
:100D70008A0660E288EE97E0CF910C948A06CF93C2
:100D80008091050887FD13C061E00E94A40460E023
:100D9000809105080E94760461E070E080E090E0B8
:100DA0000E94070661E0809105080E947604C091C8
:100DB0000808C83008F0C7E0C093080861E288EE70
:100DC00097E00E948A066C2F606188EE97E00E948F
:100DD0008A0660E288EE97E00E948A068091070802
:100DE0000E94A80660E288EE97E00E948A066CE006
:100DF00088EE97E0CF910C948A06FF920F931F9391
:100E0000CF93DF9390910908992339F080910A08D4
:100E10008F5F8917E8F580930A08D0910D08D69561
:100E2000D695D69584E5D89F8001112480910E082F
:100E30008695869586958D1780F16D2F606488EE76
:100E400097E00E948A06C0910B08F0900C086C2F66
:100E5000606888EE97E00E948A0661E0809106084B
:100E60000E9476044F2D50E06C2F70E0461B570B0C
:100E70004F5F5F4F600F711F685F7E4F8091030867
:100E8000909104080E949205DF5F0C5A1F4FCECF4D
:100E900010920A080E94BF06C0CF60E488EE97E077
:100EA0000E948A0683E580930B0810920C088FE25B
:100EB00080930D0810920E08DF91CF911F910F9132
:100EC000FF9008951F93CF93DF93EC01162F60E2FC
:100ED0000E948A066CE011116DE0CE01DF91CF9186
:100EE0001F910C948A06FC0177FD55C08085918581
:100EF000681779070CF04FC057FD4DC08285938568
:100F0000481759070CF047C08689823009F444C05D
:100F1000833009F44EC0813031F48FE290E0861BBB
:100F2000970BBA01AC01842FA62F93A1691708F47F
:100F3000962F93A394A19A1708F49A2F94A395A19E
:100F4000891708F4982F95A396A1981708F4982F5D
:100F500096A3CA0157FD0796E3E095958795EA9514
:100F6000E1F7A4E5A89FF001A99FF00D1124E60F79
:100F7000F71FE85FFE4FCA0168E070E00E94D218D8
:100F800041E050E001C0440F8A95EAF78081232BAD
:100F9000B9F0842B8083089583E590E0DC01A61BE3
:100FA000B70BBD018FE290E0DC01A41BB50BAD01D6
:100FB000BACF83E590E0841B950BAB01BC01B3CFA6
:100FC00040958423E7CF0895FC016370668B84818C
:100FD000958126813781613039F0633029F091871E
:100FE0008087338722870895318720879387828778
:100FF00008952F923F924F925F926F927F928F92BD
:101000009F92AF92BF92CF92DF92EF92FF920F9397
:101010001F93CF93DF93CDB7DEB76A970FB6F894DF
:10102000DEBF0FBECDBF9A8F898F7A8369834A0155
:10103000D22E18870F833701BC2CDC0159962D91D5
:101040003C915A972115310509F015C118968D91DB
:101050009C911997681779070CF0D7C11A968D9152
:101060009C91481759070CF0D0C14C2C512CB6E07C
:10107000CB9E600D711D11247C876B871616170699
:101080000CF0C3C1EA2DF0E0FA87E98793E0EE0F98
:10109000FF1F9A95E1F7F88BEF87CF01840F951F1B
:1010A000181619060CF0B1C1A98DBA8D58968C91FD
:1010B000811104C0BFEABD1508F4D394A98DBA8D7F
:1010C000ED91FC9111970284F385E02DCD010995F6
:1010D000B5E0DB9EC0011124E981FA81FC83EB833A
:1010E000312C212C9C0128593F4F388F2F8B4A2DB2
:1010F00050E05E8B4D8BEF89F88DE20DF31D44912E
:101100009E828D82D12CC12C69817A81620D731DE2
:101110007A8B698B842F90E09C8B8B8BE98DFA8D79
:10112000A081B18140FF82C0F1E0BF126FC0AF1259
:101130006DC01C96ED91FC912F813885A4014C0D5A
:101140005D1D69897A89898D9A8D0995EB89FC895C
:10115000F595E7954E2F5FEFC51AD50A6D817E8113
:101160008D899E89680F791F7E836D8398E0C916EB
:10117000D10481F6AFEF2A1A3A0AEB81FC81E40D23
:10118000F51DFC83EB83F5E02F16310409F0B3CF96
:101190002F81388526153705B9F0A98DBA8DED91C7
:1011A000FC91B1E0BB1257C0AB1255C069817A8186
:1011B0006B5F7F4F0088F189E02D830128E030E0EC
:1011C000A401898D9A8D0995A98DBA8DED91FC9117
:1011D00011970688F789E02DCD016A960FB6F8942D
:1011E000DEBF0FBECDBFDF91CF911F910F91FF905A
:1011F000EF90DF90CF90BF90AF909F908F907F90B7
:101200006F905F904F903F902F9009941E96ED91B4
:10121000FC91EF80F88409851A8592014D815E81E9
:101220006B817C81898D9A8D099590CF2F8138852E
:101230002615370509F48ACF31E0B31207C0A3128F
:1012400005C01C96ED91FC91930178CF1E96ED910F
:10125000FC917301E0CF6B857C8564197509068468
:10126000F785E02D73010F8518899201A401898DFE
:101270009A8D0995A9CFF9013496949132974591A9
:101280005491D91AB7E0DB9E400D511D1124F9018C
:10129000259134913C8B2B8BFA0125903490FA01E7
:1012A0003296749031963491398B3296649031969F
:1012B000449041E04C1518F04A1508F07FC0662DA7
:1012C000062C000C770B7C836B83842D042C000C84
:1012D000990B9E838D83A98DBA8DED91FC91119709
:1012E0000284F385E02DCD010995512CD12CC12C20
:1012F000EA2DF0E0FA87E9872B2D30E03C872B8739
:10130000A401440D511D47FC5A95588F4F8B69819C
:101310007A81660D711D67FC7A957E876D87798964
:10132000C71608F051CF2C2D30E04D815E81420F61
:10133000531FA985BA854A9FC0014B9F900D5A9FA4
:10134000900D1124FC01E80DF91DF88BEF87852D18
:10135000612C4F89588D420F531F5E8B4D8B671444
:1013600008F050C044244394480E877041F4C101F2
:101370000196EB89FC89E20DF31DD4901C01D7FE88
:1013800019C0A98DBA8DED91FC91662D70E0B1E088
:10139000BB1219C0AB1217C02D853E85620F731F9B
:1013A0000484F585E02D2F8138854D895E89898DEE
:1013B0009A8D0995DD0C6394842DD1CF1E821D82F8
:1013C0001C821B8288CF4B815C81640F751FAB85AB
:1013D000BC856A9FC0016B9F900D7A9F900D112470
:1013E00069817A81680F791F0684F785E02DEF8087
:1013F000F88409851A859D014F855889898D9A8DB4
:101400000995D8CF570CC3948ACF6A960FB6F89433
:10141000DEBF0FBECDBFDF91CF911F910F91FF9027
:10142000EF90DF90CF90BF90AF909F908F907F9084
:101430006F905F904F903F902F9008958F929F9262
:10144000AF92CF92EF92FF920F931F93CF93DF93C0
:10145000EC01262F898D9A8D009709F051C06A30D2
:10146000D1F41D861C868D8948E0849F900111244B
:101470008E859F85820F931F9F878E8781E090E0E6
:10148000DF91CF911F910F91FF90EF90CF90AF9090
:101490009F908F9008956D3089F3CC88AD888F89A7
:1014A0008823C1F08C859D8536E0C39E800D911DFB
:1014B0001124488559854817590764F44E855F857E
:1014C0001D861C8638E0A39EC0011124840F951F41
:1014D0009F878E87EA88FB88088919894E855F85F2
:1014E0006C857D85CE010E94F9072C898C859D85B0
:1014F00046E0249F800D911D11249D878C87BECFCF
:101500006A3069F41D861C86FC013896E4912D89A9
:101510008E859F85E29F800D911D1124ADCF6D308A
:1015200009F4ACCFFC0134963491631708F4A6CFCC
:101530003296E491E61708F4A1CFFC01329685902B
:101540009490462F431B342F47E0349F800C911C0E
:101550001124F401329634913196E4913323A9F1A8
:10156000EE2399F1CC88F4013596E491AD884F894A
:10157000442301F10E2E000CFF0BE30FF11DCE9E54
:10158000A001CF9E500D11246C857D85460F571FFD
:1015900068857985641775076CF44E855F851D86AF
:1015A0001C86FC013896E491AE9E400D511D11241D
:1015B0005F874E87EA88FB88088919894E855F8591
:1015C0006C857D85CE010E94F907F4013496E49183
:1015D0002C898C859D85E29F800D911D11248DCFD6
:1015E0006F927F928F929F92AF92BF92CF92DF9233
:1015F000EF92FF920F931F93CF93DF93EC016B0158
:101600005A0139014801E881F9810284F385E02D0E
:101610000995E881F9810288F389E02D870193011A
:10162000A501B601CE010995A501480D591D4150EE
:101630005109E881F9810288F389E02D9301B6010F
:10164000CE010995E881F9810088F189E02D9401A6
:10165000A501B601CE010995C60CD71CB601615093
:101660007109E881F9810088F189E02D9401A501D3
:10167000CE010995E881F9810688F789E02DCE0130
:10168000DF91CF911F910F91FF90EF90DF90CF905E
:10169000BF90AF909F908F907F906F9009946F92C2
:1016A0007F928F929F92AF92BF92CF92DF92EF92F2
:1016B000FF920F931F93CF93DF935C01EB016A01BD
:1016C000490138018701DC01ED91FC916217730734
:1016D00019F5641675062CF0962D872D3A01C92E42
:1016E000D82E9601261937092F5F3F4F048CF58DB0
:1016F000E02DA301BE01C5010995DF91CF911F9196
:101700000F91FF90EF90DF90CF90BF90AF909F90A0
:101710008F907F906F9008954615570591F4261786
:10172000370724F0892D4B01C22FD82F9E0128198D
:1017300039092F5F3F4F068CF78DE02DA601B401CC
:10174000DACF0284F385E02D0995D501ED91FC9166
:101750000488F589E02D83019401A601BE01C5012D
:101760000995D501ED91FC910688F789E02DC50119
:10177000DF91CF911F910F91FF90EF90DF90CF906D
:10178000BF90AF909F908F907F906F900994EF9251
:10179000FF920F931F93DC011A960D911C911B97DA
:1017A00018962D913C911997ED91FC9100A0F1A113
:1017B000E02D7B0150E040E070E060E009951F9172
:1017C0000F91FF90EF9008954F925F926F927F92EA
:1017D0008F929F92AF92BF92CF92DF92EF92FF9241
:1017E0000F931F93CF93DF936C012B015A013901A3
:1017F0004801DC01ED91FC910284F385E02D09950F
:10180000E201640C751CD601ED91FC91C615D7055B
:101810005CF40088F189E02D87019401A501BE01E7
:10182000C60109952196EFCF0688F789E02DC601FC
:10183000DF91CF911F910F91FF90EF90DF90CF90AC
:10184000BF90AF909F908F907F906F905F904F90E0
:1018500009948F929F92AF92BF92CF92DF92EF92B4
:10186000FF920F931F93CF93DF93EC015B014A012B
:101870006901E881F9810284F385E02D09959501DC
:101880002C0D3D1D21503109E881F9810488F5892D
:10189000E02D78018401A401B501CE010995E8810C
:1018A000F9810688F789E02DCE01DF91CF911F9154
:1018B0000F91FF90EF90DF90CF90BF90AF909F90EF
:1018C0008F9009948F929F92AF92BF92CF92DF92A6
:1018D000EF92FF920F931F93CF93DF93EC015B0185
:1018E0004A0169017801E881F9810284F385E02DDC
:1018F0000995C80CD91C860101501109E881F981AC
:101900000488F589E02D9501A401B501CE01099562
:10191000E881F9810688F789E02DCE01DF91CF912A
:101920001F910F91FF90EF90DF90CF90BF90AF90FD
:101930009F908F900994EF92FF920F931F93DC0179
:10194000ED91FC9100A0F1A1E02D09951F910F915F
:10195000FF90EF9008950F931F93DC01ED91FC91A0
:10196000068CF78DE02D09951F910F9108950F9327
:101970001F93DC01ED91FC91048CF58DE02D099510
:101980001F910F910895DC01ED91FC910084F18588
:10199000E02D09946F927F928F929F92AF92BF92A7
:1019A000CF92DF92EF92FF920F931F93CF93DF932B
:1019B000EC018B013A016B018FEFC81AD80A9A012A
:1019C000A601BE0188EE97E00E94C30C780181E079
:1019D000E81AF1089301A701BE0188EE97E00E9482
:1019E000C30C4E018FEF881A980A9301A801B40125
:1019F00088EE97E00E94C30C5E0181E0A81AB1084E
:101A00009301A801B50188EE97E00E94C30C9301F1
:101A1000A801B40188EE97E00E94C30C9301A801CD
:101A2000B50188EE97E00E94C30C9301A801B401B0
:101A300088EE97E00E94C30C9301A801B50188EEDF
:101A400097E00E94C30C9301A601BE0188EE97E0C7
:101A50000E94C30C9301A601BE0188EE97E00E948C
:101A6000C30C9301A701BE0188EE97E00E94C30C4E
:101A70009301A701BE0188EE97E0DF91CF911F91FE
:101A80000F91FF90EF90DF90CF90BF90AF909F901D
:101A90008F907F906F900C94C30C2F923F924F9237
:101AA0005F926F927F928F929F92AF92BF92CF92EE
:101AB000DF92EF92FF920F931F93CF93DF9300D0AB
:101AC00000D000D0CDB7DEB73C016A013E832D8344
:101AD000FC82EB825801A41AB50AB7FE03C0B19488
:101AE000A194B1088D809E80861A970A97FE03C044
:101AF0009194819491088A149B045CF0902F812F1B
:101B00000D811E819D838E839C2D8D2D6B01692FF0
:101B1000782F0C151D055CF09D818E817E836D8371
:101B2000692F782F902F812F8601C92ED82E16016C
:101B3000201A310A2B012D813E81421A530A57FE89
:101B400003C0519441945108710137FE03C03FEF27
:101B5000E31AF30AF594E7948D819E81861797071F
:101B60005CF5A1E0B0E0BA83A983C016D1064CF1C0
:101B7000D301ED91FC910484F585E02D2B813C810E
:101B8000A8016D817E818A149B041CF04D815E81C9
:101B9000B801C3010995E418F508F7FE0AC02D81C4
:101BA0003E8189819A81280F391F3E832D83E20C63
:101BB000F31C0F5F1F4FD9CF2FEF3FEF3A832983DD
:101BC000D4CF26960FB6F894DEBF0FBECDBFDF91FF
:101BD000CF911F910F91FF90EF90DF90CF90BF902A
:101BE000AF909F908F907F906F905F904F903F90BD
:101BF0002F900895089590E080E008954F925F92AD
:101C00006F927F928F929F92AF92BF92CF92DF920C
:101C1000EF92FF929C014A015B0184EF91E0B901D0
:101C20000E94D2186B01770FEE08FF08A7019601FA
:101C3000220F331F441F551FC501B4010E946F18A6
:101C400029013A01812C912C540184149504A60495
:101C5000B704B4F461E082E00E947604C701B601E3
:101C60000E94070660E082E00E947604C701B60188
:101C70000E9407068FEF881A980AA80AB80AE5CFCB
:101C800062E070E080E090E0FF90EF90DF90CF9016
:101C9000BF90AF909F908F907F906F905F904F908C
:101CA0000C940706EF92FF920F931F9340910D043F
:101CB00050910E0460910F0470911004EE24E3948F
:101CC000F12C03E010E023E030E088EE97E00E9482
:101CD000E40B10921A041092190480911904909147
:101CE0001A04209117043091180482179307D4F432
:101CF000880F991FFC01E25EFB4F60817181825564
:101D00009A4F41E050E0FC01808191810E94CA0C11
:101D10008091190490911A04019690931A0480936B
:101D20001904DBCF1F910F91FF90EF900C94FD06EB
:101D3000E8E0F1E088EF91E0DF019C011D92215085
:101D40003040E1F710920B0880910C08833508F4BD
:101D500083E580930C0810920D0880910E088F3255
:101D600008F48FE280930E081092F5071092F407A2
:101D70001092F7071092F60708950E94251AFB01AA
:101D800001900020E9F73197AF01461B570BDC01AA
:101D9000ED91FC910280F381E02D09948F929F9246
:101DA000AF92BF92EF92FF920F931F93CF93DF9367
:101DB000CDB7DEB7A1970FB6F894DEBF0FBECDBF8B
:101DC0007C01FA01CB0119A2223008F42AE08E012D
:101DD0000F5D1F4F822E912CB12CA12CBF01A501AC
:101DE00094010E94A118F901CA016A300CF5605DE6
:101DF000D8016E938D01232B242B252B79F790E0AE
:101E000080E0109721F0BD01C7010E94BF0EA1968E
:101E10000FB6F894DEBF0FBECDBFDF91CF911F91FB
:101E20000F91FF90EF90BF90AF909F908F9008958B
:101E3000695CDECFCF92DF92EF92FF92CF93DF9378
:101E40006C01990FEE08FF08F7FE1BC06DE288EEEB
:101E500097E00E941E0AEC0144275527BA014C194D
:101E60005D096E097F092AE088EE97E00E94CE0E98
:101E70008C0F9D1FDF91CF91FF90EF90DF90CF905F
:101E800008952AE0B701A60188EE97E0DF91CF918F
:101E9000FF90EF90DF90CF900C94CE0E1F93CF93D6
:101EA000DF9385ED8093BC0080919503909196031C
:101EB000A0919703B09198030796A11DB11D23E04F
:101EC000B695A795979587952A95D1F72091BC004F
:101ED00024FD03C01092DD0352C040919503509140
:101EE00096036091970370919803452B462B472BDF
:101EF00069F30097A105B10541F025E32A95F1F7B3
:101F000000000197A109B109E1CF80919403C1E0DC
:101F1000C0939303882399F1D091B8001091BA002F
:101F20008091BC008A7B8093BC0060E082E10E94CB
:101F3000760460E083E10E9476041092DD03C09392
:101F4000DF031092DE0361E082E10E94760461E02B
:101F500083E10E9476048091B9008E7F8093B9005E
:101F60008091B9008D7F8093B90088E48093B80098
:101F700085E48093BC001093BA00D093B800DF9141
:101F8000CF911F9108951F920F920FB60F921124B7
:101F90002F933F934F935F936F937F938F939F9371
:101FA000AF93BF93EF93FF938BE497E00E94950369
:101FB000FF91EF91BF91AF919F918F917F916F9121
:101FC0005F914F913F912F910F900FBE0F901F90F7
:101FD00018951F920F920FB60F9211242F938F9383
:101FE0009F93EF93FF93E0915B07F0915C078081F3
:101FF000E0916107F091620782FD1BC090818091A2
:1020000064078F5F8F7320916507821741F0E0911D
:102010006407F0E0E55BF84F958F80936407FF91CC
:10202000EF919F918F912F910F900FBE0F901F9066
:1020300018958081F4CF1F920F920FB60F92112442
:102040002F933F938F939F93AF93BF9380910904F6
:1020500090910A04A0910B04B0910C0430910304F8
:1020600023E0230F2D3758F50196A11DB11D2093B4
:1020700003048093090490930A04A0930B04B09383
:102080000C048091040490910504A0910604B09181
:1020900007040196A11DB11D8093040490930504CB
:1020A000A0930604B0930704BF91AF919F918F91C5
:1020B0003F912F910F900FBE0F901F90189526E81B
:1020C000230F0296A11DB11DD2CF1F920F920FB602
:1020D0000F9211242F933F934F935F936F937F93AE
:1020E0008F939F93AF93BF93EF93FF938091B9002A
:1020F000887F803609F44AC0F0F5883209F4A5C01B
:1021000018F5803109F499C0B8F4882309F4F5C0B2
:10211000883009F492C0FF91EF91BF91AF919F91E8
:102120008F917F916F915F914F913F912F910F9080
:102130000FBE0F901F901895883109F486C0803229
:1021400051F78093DC0314C0803409F49BC040F441
:102150008033B9F38833F9F68093DC0385ECAEC0A5
:10216000803509F483C0883509F494C0883499F621
:102170000E944E0FD0CF883909F48AC038F58837CD
:1021800029F050F4883611F0803729F683E08093E7
:10219000DD031092DB0355C0883809F479C080391B
:1021A00019F0803809F0B7CF8091DB03803208F056
:1021B0006FC0E091DB0381E08E0F8093DB038091A1
:1021C000BB00F0E0E554FC4F80833BC0803B39F01E
:1021D000D0F4803A09F477C0883A09F09CCF84E0C3
:1021E0008093DD031092BA031092B903F0E0E0E0AF
:1021F00009958091B90381110FC081E08093B903E3
:102200001092990309C0803C09F4A8CF883C09F4D6
:10221000A5CF883B09F07FCFE091BA0381E08E0F14
:102220008093BA03F0E0E756FC4F80818093BB00B7
:102230009091BA038091B90329C0809102048093E0
:10224000BB0085EC8093BC0066CF90910104809127
:102250000004981758F5E091010481E08E0F8093F7
:102260000104F0E0E052FC4F8081E9CFE0910104ED
:1022700081E08E0F809301048091BB00F0E0E0527A
:10228000FC4F808390910104809100049817C8F25C
:1022900085E8D8CFE091010481E08E0F809301049E
:1022A0008091BB00F0E0E052FC4F80838091DF031F
:1022B00081115ECF81E08093DE0384EA8093BC00CD
:1022C0001092DD0328CF85EC8093BC001092DD03D3
:1022D0008091DB03803230F4E091DB03F0E0E554E1
:1022E000FC4F10826091DB0370E08BEB93E0F0E039
:1022F000E0E009951092DB030ECF1092DC0338CF9B
:102300000F931F93CF93DF93EBE4F7E013821282D6
:1023100088EE93E0A0E0B0E084839583A683B78342
:102320008EE093E09183808385EC90E095878487AD
:1023300084EC90E09787868780EC90E0918B808B8F
:1023400081EC90E0938B828B82EC90E0958B848B78
:1023500086EC90E0978B868B118E128E138E148EE6
:10236000C8EED7E01B821A8224E530E03D832C833F
:1023700080E390E09F838E83398728879B878A87B5
:102380001E8A1D861C861F861E8681E08D8B8C8B87
:102390002FEF3FEF3B8B2A8B398B288B8F8B188E3F
:1023A0001A8E198E80E293E0998388838CE190E005
:1023B0000E9400198C0188E0D8011B968C931B9712
:1023C00084E01C968C931C978FEF1E968C931E971F
:1023D00085E01D968C931D97E6EBF5E0E491F0E027
:1023E000EE0FFF1FEC55FA4F85919491F801968BF3
:1023F000858BE8E9F5E0E4915A96EC935A97E3EB84
:10240000F5E0E491F0E0EE0FFF1FEC55FA4F8591F7
:102410009491F801908B8787E5E9F5E0E491579670
:10242000EC935797E2EBF5E0E491F0E0EE0FFF1F3D
:10243000EC55FA4F85919491F801928B818BE4E9E8
:10244000F5E0E4915996EC9380E099E0ADE3B0E0DB
:10245000F80184839583A683B78381E090E0918718
:1024600080871286138E82E090E00E94001920E59A
:10247000DC012C9311961C92F801938382831182C4
:1024800010821C8F0B8F86E08E8F89E08D8FDF91FD
:10249000CF911F910F910895789484B5826084BD87
:1024A00084B5816084BD85B5826085BD85B5816058
:1024B00085BD80916E00816080936E0010928100D6
:1024C0008091810082608093810080918100816091
:1024D0008093810080918000816080938000809152
:1024E000B10084608093B1008091B00081608093DE
:1024F000B00080917A00846080937A0080917A00A5
:10250000826080937A0080917A00816080937A0063
:1025100080917A00806880937A001092C100E091E7
:102520005B07F0915C0782E08083E0915707F091B0
:1025300058071082E0915907F0915A078FEC808379
:1025400010926307E0915F07F091600786E0808357
:10255000E0915D07F0915E07808180618083E0916A
:102560005D07F0915E07808188608083E0915D0760
:10257000F0915E07808180688083E0915D07F09133
:102580005E0780818F7D80830E94980EC091030832
:10259000D091040861E08B850E94A40461E08B85E2
:1025A0000E94760488819981892B09F41BC11FB789
:1025B000F89480910804811127C0E8EBF5E084913C
:1025C000EAE9F5E09491E82FF0E0EE0FFF1FE45800
:1025D000FA4FA591B491EC91E92321F461E08AE0EE
:1025E0000E94760461E08AE00E94A4048CB58061B8
:1025F0008CBD8CB580648CBD61E08DE00E94A4042C
:1026000061E08BE00E94A404809108048F5F8093B6
:1026100008041FBF81E08B8F61E0809106080E9453
:10262000A4048091050887FD03C061E00E94A40412
:1026300084E08093080888E28093070810920908D4
:1026400010920A080E94BF0610920B0880910C0895
:10265000833508F483E580930C0810920D0880916F
:102660000E088F3208F48FE280930E080E94FD0658
:102670008BE40E94A80660E088E00E94A40460E069
:102680008BE00E94A40460E08CE00E94A40460E05F
:102690008AE00E94A40460E089E00E94A40461E052
:1026A00082E00E94A40461E083E00E94A40468E741
:1026B00083E00E94760468E473E08BE497E00E9474
:1026C000BF0E6BE573E08BE497E00E94BF0E81E0E4
:1026D0008093FC078093FD0781E090E09093FB07D7
:1026E0008093FA079093F9078093F807CAE0D0E047
:1026F000D093F507C093F4078FE090E09093F7072D
:102700008093F6076EE573E088EE97E00E94BF0EB7
:10271000D093F507C093F40788E290E09093F70711
:102720008093F60765E673E088EE97E00E94BF0E9F
:102730000E94FD0688E090E09093180480931704AF
:102740008091F0079091F10797FD019695958795F7
:102750009093100480930F048091F2079091F307F7
:1027600097FD01969595879590930E0480930D049F
:10277000AEEAB5E0EEE1F4E089E190E02AE030E095
:102780008D939D932193319303978E3F4FEF940741
:10279000B9F710921A0410921904809119049091BB
:1027A0001A04209117043091180482179307C4F576
:1027B000880F991FFC01E25EFB4F60817181825599
:1027C0009A4F41E050E0DC018D919C910E94CA0C2F
:1027D0008091190490911A04019690931A048093A1
:1027E0001904DBCF61E08C850E94A4048A858B7F6D
:1027F00060E009F061E08C850E9476048D858F3F52
:1028000039F061E00E94A40461E08D850E947604A5
:102810008E858F3F09F4FECE60E00E94A404FACEBC
:102820006AE673E08BE497E00E94BF0E40910401DA
:102830005091050160910601709107012AE08BE437
:1028400097E00E94CE0E6BE573E08BE497E00E9468
:10285000BF0E0E94FD0681E080933E07A8E14A2E4C
:1028600055245394612C712CC1E0D0E0E8E22E2E67
:10287000312CFEE18F2E912C88E00E944D045C01EA
:1028800090934A07809349078AE00E944D048C0187
:1028900090934807809347078BE00E944D046C019A
:1028A00090934607809345078CE00E944D047C017D
:1028B000909344078093430789E00E944D049093CE
:1028C00042078093410720913F0730914007232B17
:1028D00019F5AB2809F06FC120913E0721116BC19A
:1028E00081E080931D0410921C0410921B048091BF
:1028F000AE059091AF050397909303018093020179
:1029000080911E0490911F04909301018093000117
:10291000D0934007C0933F072FB7F8946091090404
:1029200070910A0480910B0490910C042FBF2091A8
:1029300004013091050140910601509107010E9468
:10294000A118672B682B692B09F002C380913F0700
:1029500090914007892B09F04EC08091AE0590916F
:10296000AF0520913E07222379F09C012D5F3F4F58
:10297000309303012093020120911E0430911F0423
:10298000309301012093000120911D04222379F04E
:102990009C012350310930930301209302012091BF
:1029A0001E0430911F0430930101209300012091F7
:1029B0001C04222371F020911E0430911F04235027
:1029C000310930930101209300019093030180931A
:1029D000020120911B04222371F020911E043091EA
:1029E0001F042D5F3F4F309301012093000190930E
:1029F0000301809302011092400710923F07D09389
:102A00001A04C0931904FF24F3946CE0A62EB12C91
:102A10000FE010E078E0C72ED12C8091190490913E
:102A20001A04E0911704F09118042091AE0530913A
:102A3000AF058E179F070CF059C1880F991FFC0135
:102A4000E255FA4F408151814217530709F0A9C05E
:102A5000825E9B4FDC012D913C9180911E049091F0
:102A60001F042817390709F09CC081E090E00E94FC
:102A70005918E82E8093160490E080E00E945918BF
:102A8000809315042E2D30E0322F2227820F932FB2
:102A9000911D90931404809313044091110460914C
:102AA0001204242F362F8217930790F430931404C6
:102AB00020931304609316044093150481E090E082
:102AC0000E9461186091150490E080E00E946118F6
:102AD0000E94980ED093FB07C093FA07D093F90792
:102AE000C093F807F092FC07F092FD07E4E1F0E0F4
:102AF000F093F507E093F407B092F707A092F6077A
:102B000069E773E088EE97E00E94BF0E1093F50727
:102B10000093F4079092F7078092F60763E873E05A
:102B200088EE97E00E94BF0E8091110490911204EC
:102B30000E941A0F1093F5070093F4073092F707DD
:102B40002092F6076BE873E088EE97E00E94BF0ED4
:102B5000409113045091140470E060E02AE088EE84
:102B600097E00E94CE0E0E94FD0648E853E160E027
:102B700070E084E190E00E94FE0D0E94980ED092D9
:102B80001804C0921704109212041092110440927B
:102B900004015092050160920601709207010E94A3
:102BA000520E8091190490911A04019690931A0480
:102BB0008093190432CFCD2889F420911D0421116E
:102BC0000DC081E080933E0710921C0410921B04FC
:102BD0008091AE059091AF0503968ECEEF28E9F473
:102BE00020911B04211119C081E080931C041092D4
:102BF0001D0410923E0780911E0490911F040397BC
:102C000090930101809300018091AE059091AF05F2
:102C100090930301809302017BCE012B89F42091D4
:102C20001C0421110DC081E080931B0410921D042F
:102C300010923E0780911E0490911F040396E0CFEE
:102C4000892B09F069CE0E94980ED093FB07C093A0
:102C5000FA07D093F907C093F80785E090E09093C6
:102C60001A048093190411E08091190490911A04B8
:102C700018161906C4F5E9E1F0E0F093F507E093C2
:102C8000F4078AE090E09093F7078093F60710939B
:102C9000FC071093FD0762E773E088EE97E00E945F
:102CA000BF0E3092F5072092F4079092F7078092BA
:102CB000F6078091190490911A040E941A0F0E943D
:102CC000FD0668EE73E080E090E00E9407060E9437
:102CD000980E8091190490911A04019790931A0408
:102CE00080931904C1CF0E94520E16CE60910F043A
:102CF000709110046217730771F0CB01019682176F
:102D0000930749F001968217930729F003978217DA
:102D1000930709F076C080911E0490911F044091A2
:102D20000D0450910E048417950789F09A012F5FC6
:102D30003F4F8217930759F02F5F3F4F821793073A
:102D400031F0235031098217930709F05AC080915E
:102D5000110490911204019690931204809311042F
:102D60003196F0931804E093170480910401909138
:102D70000501A0910601B09107018A359105A105D1
:102D8000B10558F04497A109B109809304019093CB
:102D90000501A0930601B0930701F12CE12C03E09B
:102DA00010E023E030E088EE97E00E94E40B0E9400
:102DB000FD0642E350E060E070E083E290E00E94B4
:102DC000FE0D0E9401182FE430E040E050E00E9428
:102DD0006F186F5F7F4F8F4F9F4F709310046093FA
:102DE0000F040E94011827E230E040E050E00E940A
:102DF0006F186F5F7F4F8F4F9F4F70930E046093DC
:102E00000D0480910201909103011816190634F007
:102E10008C5A9F4F9093030180930201809102018D
:102E2000909103018435910534F084559109909374
:102E30000301809302018091000190910101181615
:102E400019062CF0C09690930101809300018091A7
:102E5000000190910101803391052CF0C09790936F
:102E60000101809300018091170490911804C09093
:102E70000201D0900301E0900001F0900101EEE129
:102E8000F4E02EEAA22E25E0B22E30E020E08217F8
:102E90009307CCF0D5014D915D915D0161917191E8
:102EA0008D0102501109D801CC921196DC928F014C
:102EB00002501109D801EC921196FC922F5F3F4FFE
:102EC0007B016A01E4CFC0920201D0920301E0923B
:102ED0000001F092010197FF02C08FEF9FEF019672
:102EE00090931A048093190440910D0450910E049C
:102EF00060910F0470911004EE24E394F12C02E031
:102F000010E022E030E088EE97E00E94E40B609150
:102F10001E0470911F0441E050E08091AE05909135
:102F2000AF050E94CA0CE0911704F0911804EE0F4F
:102F3000FF1FDF01A25EBB4F6D917C91E255FA4FFE
:102F400050E040E0808191810E94CA0C0E94FD0601
:102F500080E090E0892B09F48FCC0E9481038823C4
:102F600009F482CC0E9400007FCC8F929F92AF9296
:102F7000BF92CF92DF92EF92FF92CF93DF93EC015B
:102F8000688179818A819B8161157105810591052F
:102F900021F464E279ED8BE597E02DE133EF41E038
:102FA00050E00E946F1849015A019B01AC01A7EA49
:102FB000B1E40E948E186B017C01ACEEB4EFA50168
:102FC00094010E949C18C60ED71EE81EF91EF7FE3B
:102FD00006C081E0C81AD108E10880E8F80AC88272
:102FE000D982EA82FB82C701B6019F77DF91CF9138
:102FF000FF90EF90DF90CF90BF90AF909F908F9019
:1030000008958F929F92AF92BF92CF92DF92EF92EC
:10301000FF926091000370910103809102039091EF
:103020000303611571058105910521F464E279EDD1
:103030008BE597E02DE133EF41E050E00E946F18FF
:1030400049015A019B01AC01A7EAB1E40E948E1824
:103050006B017C01ACEEB4EFA50194010E949C18B9
:10306000C60ED71EE81EF91EF7FE06C081E0C81A7C
:10307000D108E10880E8F80AC0920003D092010369
:10308000E0920203F0920303C701B6019F77FF901D
:10309000EF90DF90CF90BF90AF909F908F9008956A
:1030A00060930003709301038093020390930303E2
:1030B0000895F999FECF92BD81BDF89A992780B500
:1030C0000895262FF999FECF1FBA92BD81BD20BD6C
:1030D0000FB6F894FA9AF99A0FBE01960895052E44
:1030E00097FB1EF400940E94861857FD07D00E949B
:1030F000A11807FC03D04EF40C9486185095409507
:10310000309521953F4F4F4F5F4F08959095809593
:10311000709561957F4F8F4F9F4F08950E94C31800
:10312000A59F900DB49F900DA49F800D911D11241B
:103130000895B7FF0C948E180E948E18821B930B73
:103140000895A1E21A2EAA1BBB1BFD010DC0AA1FE8
:10315000BB1FEE1FFF1FA217B307E407F50720F000
:10316000A21BB30BE40BF50B661F771F881F991F7B
:103170001A9469F760957095809590959B01AC01C4
:10318000BD01CF010895A29FB001B39FC001A39FCD
:10319000700D811D1124911DB29F700D811D112490
:1031A000911D089597FB072E16F4009407D077FD24
:1031B00009D00E94E61807FC05D03EF49095819551
:1031C0009F4F0895709561957F4F0895AA1BBB1B73
:1031D00051E107C0AA1FBB1FA617B70710F0A61B17
:1031E000B70B881F991F5A95A9F780959095BC0138
:1031F000CD010895EE0FFF1F0590F491E02D099485
:103200000F931F93CF93DF938230910510F482E0E8
:1032100090E0E0911108F091120830E020E0B0E079
:10322000A0E0309799F42115310509F44AC0281B14
:10323000390B24303105D8F58A819B8161157105E0
:1032400089F1FB0193838283FE0111C0408151818A
:103250000281138148175907E0F04817590799F47C
:10326000109761F012960C93129713961C93329656
:10327000CF01DF91CF911F910F9108950093110815
:1032800010931208F4CF2115310551F0421753075E
:1032900038F0A901DB019A01BD01DF01F801C1CFBE
:1032A000EF01F9CF9093120880931108CDCFFE0162
:1032B000E20FF31F819391932250310939832883C0
:1032C000D7CF20910F0830911008232B41F4209183
:1032D0000603309107033093100820930F082091C4
:1032E0000403309105032115310541F42DB73EB794
:1032F0004091080350910903241B350BE0910F08FE
:10330000F0911008E217F307A0F42E1B3F0B2817CB
:10331000390778F0AC014E5F5F4F2417350748F04E
:103320004E0F5F1F5093100840930F0881939193A5
:103330009FCFF0E0E0E09CCFCF93DF930097E9F0E0
:10334000FC01329713821282A0911108B0911208E9
:10335000ED0130E020E01097A1F420813181820F4F
:10336000931F20910F08309110082817390709F092
:1033700061C0F0931008E0930F08DF91CF9108959A
:10338000EA01CE17DF07E8F54A815B819E0141150E
:103390005105B1F7E901FB83EA8349915991C40FC3
:1033A000D51FEC17FD0761F4808191810296840F8F
:1033B000951FE90199838883828193819B838A8306
:1033C000F0E0E0E012968D919C9113970097B9F58B
:1033D0002D913C911197CD010296820F931F209160
:1033E0000F08309110082817390739F6309751F532
:1033F0001092120810921108B0931008A0930F08B1
:10340000BCCFD383C28340815181840F951FC817DD
:10341000D90761F44E5F5F4F88819981480F591F2A
:10342000518340838A819B81938382832115310557
:1034300009F0B0CFF0931208E09311089ECFFD0180
:10344000DC01C0CF13821282D7CF81E090E0F894E4
:103450000C942A1AF894FFCF0A000A001801000001
:10346000000000000000000000000000000000005C
:10347000000000000000000000000000000000004C
:10348000000000000000C0E0F0F8FCFCFEFFFCE0E3
:10349000000000000000000000000000000000002C
:1034A000000000000000000000000000000000001C
:1034B000000000000000000000000000000000000C
:1034C0000000000000F8F8F8F8F8F8F8F8F8F8F854
:1034D000F8F0F0E0E0C080C0FCFFFFFFFF7F3F7F1F
:1034E000FFFFFFFFFF0000000000000000000000E1
:1034F00000000000000000000000000000000000CC
:1035000000000000000000000000000000000000BB
:10351000000000000000000000000F1F3F7FFFFFC1
:10352000FFFFFFFFFFFFE7C7C7878F9F9FFFFFFFDB
:10353000C1C0E0FCFFFFFFFFFFFCFCFCFCFEFEFE49
:10354000FCFCF8F8F0E0C0C0000000000000000043
:10355000000000000000000000000000000000006B
:10356000000000000000000000000000000000005B
:103570000080C0E0F1FBFFFFFFFFFF7F1F0F0F8701
:10358000E7FFFFFF1F1F3FF9F8F8F8F8F8F8FDFF15
:10359000FFFFFFFFFFFFFFFF7F3F0F07010000005E
:1035A000000000000000000000000000000000001B
:1035B000000000000000000000000000000000000B
:1035C000000000F0FEFFFFFFFFFFFFFFFFFFFFFE19
:1035D0007E3F3F0F1FFFFFFFFCF0E0F1FFFFFFFF0B
:1035E000FFFCF001010101010101010000000000E8
:1035F00000000000000000000000000000000000CB
:1036000000000000000000000000000000000000BA
:103610000000000000000003030303030303030191
:1036200001010100000000000000030F1F3F7F7F29
:10363000FFFFFFFF7F7F1F0300000000000000006E
:10364000000000000000000000000000000000007A
:10365000000000000000000001000000000013084E
:10366000800000000000B70317034403040475033F
:1036700053036703000000001E0A1703FB0DFA0D39
:1036800073071603C30C9B0CB70CAB0C4D0D160344
:10369000E4076207620C290CE40BC70B4F0BF00A1E
:1036A000676F6F6420706F696E7420736E616B65F5
:1036B0002E2E000D0A00666C796F7A6B00746573AC
:1036C000740073706565643A200050415553454459
:1036D0000047616D65204F7665720053636F7265B8
:0A36E0003A2000486967683A2000AC
:107E0000112484B714BE81FFF0D085E080938100F7
:107E100082E08093C00088E18093C10086E0809377
:107E2000C20080E18093C4008EE0C9D0259A86E02C
:107E300020E33CEF91E0309385002093840096BBD3
:107E4000B09BFECF1D9AA8958150A9F7CC24DD24C4
:107E500088248394B5E0AB2EA1E19A2EF3E0BF2EE7
:107E6000A2D0813461F49FD0082FAFD0023811F036
:107E7000013811F484E001C083E08DD089C08234E0
:107E800011F484E103C0853419F485E0A6D080C0E4
:107E9000853579F488D0E82EFF2485D0082F10E0AE
:107EA000102F00270E291F29000F111F8ED06801E7
:107EB0006FC0863521F484E090D080E0DECF843638
:107EC00009F040C070D06FD0082F6DD080E0C81688
:107ED00080E7D80618F4F601B7BEE895C0E0D1E017
:107EE00062D089930C17E1F7F0E0CF16F0E7DF06D8
:107EF00018F0F601B7BEE89568D007B600FCFDCFD4
:107F0000A601A0E0B1E02C9130E011968C91119780
:107F100090E0982F8827822B932B1296FA010C0160
:107F200087BEE89511244E5F5F4FF1E0A038BF0790
:107F300051F7F601A7BEE89507B600FCFDCF97BE46
:107F4000E89526C08437B1F42ED02DD0F82E2BD052
:107F50003CD0F601EF2C8F010F5F1F4F84911BD097
:107F6000EA94F801C1F70894C11CD11CFA94CF0C13
:107F7000D11C0EC0853739F428D08EE10CD085E9AC
:107F80000AD08FE07ACF813511F488E018D01DD067
:107F900080E101D065CF982F8091C00085FFFCCF94
:107FA0009093C60008958091C00087FFFCCF809118
:107FB000C00084FD01C0A8958091C6000895E0E648
:107FC000F0E098E1908380830895EDDF803219F02E
:107FD00088E0F5DFFFCF84E1DECF1F93182FE3DFCA
:107FE0001150E9F7F2DF1F91089580E0E8DFEE27F6
:047FF000FF270994CA
:027FFE00040479
:00000001FF
